{
    "abi": [
        {
            "type": "constructor",
            "inputs": [
                {
                    "name": "tokenAddresses",
                    "type": "address[]",
                    "internalType": "address[]"
                },
                {
                    "name": "priceFeedAddresses",
                    "type": "address[]",
                    "internalType": "address[]"
                },
                {
                    "name": "stableCoinAddress",
                    "type": "address",
                    "internalType": "address"
                },
                {
                    "name": "lpTokenAddress",
                    "type": "address",
                    "internalType": "address"
                },
                {
                    "name": "interestRateModelAddress_",
                    "type": "address",
                    "internalType": "address"
                }
            ],
            "stateMutability": "nonpayable"
        },
        {
            "type": "function",
            "name": "LTV",
            "inputs": [],
            "outputs": [
                {
                    "name": "",
                    "type": "uint256",
                    "internalType": "uint256"
                }
            ],
            "stateMutability": "view"
        },
        {
            "type": "function",
            "name": "PRECISION",
            "inputs": [],
            "outputs": [
                {
                    "name": "",
                    "type": "uint256",
                    "internalType": "uint256"
                }
            ],
            "stateMutability": "view"
        },
        {
            "type": "function",
            "name": "borrowLoan",
            "inputs": [
                {
                    "name": "token",
                    "type": "address",
                    "internalType": "address"
                },
                {
                    "name": "amount",
                    "type": "uint256",
                    "internalType": "uint256"
                }
            ],
            "outputs": [],
            "stateMutability": "nonpayable"
        },
        {
            "type": "function",
            "name": "burn",
            "inputs": [
                {
                    "name": "amount",
                    "type": "uint256",
                    "internalType": "uint256"
                }
            ],
            "outputs": [],
            "stateMutability": "nonpayable"
        },
        {
            "type": "function",
            "name": "checkUpkeep",
            "inputs": [
                {
                    "name": "",
                    "type": "bytes",
                    "internalType": "bytes"
                }
            ],
            "outputs": [
                {
                    "name": "upkeepNeeded",
                    "type": "bool",
                    "internalType": "bool"
                },
                {
                    "name": "performData",
                    "type": "bytes",
                    "internalType": "bytes"
                }
            ],
            "stateMutability": "view"
        },
        {
            "type": "function",
            "name": "depositCollateral",
            "inputs": [
                {
                    "name": "token",
                    "type": "address",
                    "internalType": "address"
                },
                {
                    "name": "amount",
                    "type": "uint256",
                    "internalType": "uint256"
                }
            ],
            "outputs": [],
            "stateMutability": "payable"
        },
        {
            "type": "function",
            "name": "depositLiquidity",
            "inputs": [
                {
                    "name": "token",
                    "type": "address",
                    "internalType": "address"
                },
                {
                    "name": "amount",
                    "type": "uint256",
                    "internalType": "uint256"
                }
            ],
            "outputs": [],
            "stateMutability": "nonpayable"
        },
        {
            "type": "function",
            "name": "getBorrowerIndex",
            "inputs": [
                {
                    "name": "token",
                    "type": "address",
                    "internalType": "address"
                }
            ],
            "outputs": [
                {
                    "name": "",
                    "type": "uint256",
                    "internalType": "uint256"
                }
            ],
            "stateMutability": "view"
        },
        {
            "type": "function",
            "name": "getCollateralDetailsOfUser",
            "inputs": [
                {
                    "name": "token",
                    "type": "address",
                    "internalType": "address"
                }
            ],
            "outputs": [
                {
                    "name": "",
                    "type": "uint256",
                    "internalType": "uint256"
                }
            ],
            "stateMutability": "view"
        },
        {
            "type": "function",
            "name": "getCollateralPerToken",
            "inputs": [
                {
                    "name": "token",
                    "type": "address",
                    "internalType": "address"
                }
            ],
            "outputs": [
                {
                    "name": "",
                    "type": "uint256",
                    "internalType": "uint256"
                }
            ],
            "stateMutability": "view"
        },
        {
            "type": "function",
            "name": "getInterestRateModelAddress",
            "inputs": [],
            "outputs": [
                {
                    "name": "",
                    "type": "address",
                    "internalType": "address"
                }
            ],
            "stateMutability": "view"
        },
        {
            "type": "function",
            "name": "getLoanDetails",
            "inputs": [
                {
                    "name": "user",
                    "type": "address",
                    "internalType": "address"
                },
                {
                    "name": "token",
                    "type": "address",
                    "internalType": "address"
                }
            ],
            "outputs": [
                {
                    "name": "",
                    "type": "tuple",
                    "internalType": "struct LendingPoolContract.LoanDetails",
                    "components": [
                        {
                            "name": "token",
                            "type": "address",
                            "internalType": "address"
                        },
                        {
                            "name": "amountBorrowedInUSDT",
                            "type": "uint256",
                            "internalType": "uint256"
                        },
                        {
                            "name": "principalAmount",
                            "type": "uint256",
                            "internalType": "uint256"
                        },
                        {
                            "name": "collateralUsed",
                            "type": "uint256",
                            "internalType": "uint256"
                        },
                        {
                            "name": "lastUpdate",
                            "type": "uint256",
                            "internalType": "uint256"
                        },
                        {
                            "name": "asset",
                            "type": "address",
                            "internalType": "address"
                        },
                        {
                            "name": "userBorrowIndex",
                            "type": "uint256",
                            "internalType": "uint256"
                        },
                        {
                            "name": "interestPaid",
                            "type": "uint256",
                            "internalType": "uint256"
                        },
                        {
                            "name": "liquidationPoint",
                            "type": "uint256",
                            "internalType": "uint256"
                        },
                        {
                            "name": "amountBorrowedInToken",
                            "type": "uint256",
                            "internalType": "uint256"
                        },
                        {
                            "name": "pendingInterest",
                            "type": "uint256",
                            "internalType": "uint256"
                        },
                        {
                            "name": "principalToRepay",
                            "type": "uint256",
                            "internalType": "uint256"
                        },
                        {
                            "name": "dueDate",
                            "type": "uint256",
                            "internalType": "uint256"
                        },
                        {
                            "name": "penaltyCount",
                            "type": "uint8",
                            "internalType": "uint8"
                        },
                        {
                            "name": "isLiquidated",
                            "type": "bool",
                            "internalType": "bool"
                        }
                    ]
                }
            ],
            "stateMutability": "view"
        },
        {
            "type": "function",
            "name": "getLpTokenAddress",
            "inputs": [],
            "outputs": [
                {
                    "name": "",
                    "type": "address",
                    "internalType": "address"
                }
            ],
            "stateMutability": "view"
        },
        {
            "type": "function",
            "name": "getPriceFeedAddress",
            "inputs": [
                {
                    "name": "token",
                    "type": "address",
                    "internalType": "address"
                }
            ],
            "outputs": [
                {
                    "name": "",
                    "type": "address",
                    "internalType": "address"
                }
            ],
            "stateMutability": "view"
        },
        {
            "type": "function",
            "name": "getTokenAmountFromUsd",
            "inputs": [
                {
                    "name": "token",
                    "type": "address",
                    "internalType": "address"
                },
                {
                    "name": "usdValue",
                    "type": "uint256",
                    "internalType": "uint256"
                }
            ],
            "outputs": [
                {
                    "name": "",
                    "type": "uint256",
                    "internalType": "uint256"
                }
            ],
            "stateMutability": "view"
        },
        {
            "type": "function",
            "name": "getTotalBorrowedForAToken",
            "inputs": [
                {
                    "name": "token",
                    "type": "address",
                    "internalType": "address"
                }
            ],
            "outputs": [
                {
                    "name": "",
                    "type": "uint256",
                    "internalType": "uint256"
                }
            ],
            "stateMutability": "view"
        },
        {
            "type": "function",
            "name": "getTotalLiquidity",
            "inputs": [],
            "outputs": [
                {
                    "name": "",
                    "type": "uint256",
                    "internalType": "uint256"
                }
            ],
            "stateMutability": "view"
        },
        {
            "type": "function",
            "name": "getTotalLiquidityPerToken",
            "inputs": [
                {
                    "name": "token",
                    "type": "address",
                    "internalType": "address"
                }
            ],
            "outputs": [
                {
                    "name": "",
                    "type": "uint256",
                    "internalType": "uint256"
                }
            ],
            "stateMutability": "view"
        },
        {
            "type": "function",
            "name": "getUsdValue",
            "inputs": [
                {
                    "name": "token",
                    "type": "address",
                    "internalType": "address"
                },
                {
                    "name": "amount",
                    "type": "uint256",
                    "internalType": "uint256"
                }
            ],
            "outputs": [
                {
                    "name": "",
                    "type": "uint256",
                    "internalType": "uint256"
                }
            ],
            "stateMutability": "view"
        },
        {
            "type": "function",
            "name": "getUserBalance",
            "inputs": [
                {
                    "name": "user",
                    "type": "address",
                    "internalType": "address"
                },
                {
                    "name": "token",
                    "type": "address",
                    "internalType": "address"
                }
            ],
            "outputs": [
                {
                    "name": "",
                    "type": "uint256",
                    "internalType": "uint256"
                }
            ],
            "stateMutability": "view"
        },
        {
            "type": "function",
            "name": "getValueOfLpToken",
            "inputs": [],
            "outputs": [
                {
                    "name": "valueOflpToken",
                    "type": "uint256",
                    "internalType": "uint256"
                }
            ],
            "stateMutability": "view"
        },
        {
            "type": "function",
            "name": "getVaultAddress",
            "inputs": [],
            "outputs": [
                {
                    "name": "",
                    "type": "address",
                    "internalType": "address"
                }
            ],
            "stateMutability": "view"
        },
        {
            "type": "function",
            "name": "interestRateModelAddress",
            "inputs": [],
            "outputs": [
                {
                    "name": "",
                    "type": "address",
                    "internalType": "address"
                }
            ],
            "stateMutability": "view"
        },
        {
            "type": "function",
            "name": "performUpkeep",
            "inputs": [
                {
                    "name": "performData",
                    "type": "bytes",
                    "internalType": "bytes"
                }
            ],
            "outputs": [],
            "stateMutability": "nonpayable"
        },
        {
            "type": "function",
            "name": "repayLoan",
            "inputs": [
                {
                    "name": "token",
                    "type": "address",
                    "internalType": "address"
                },
                {
                    "name": "amount",
                    "type": "uint256",
                    "internalType": "uint256"
                }
            ],
            "outputs": [],
            "stateMutability": "nonpayable"
        },
        {
            "type": "function",
            "name": "s_borrowerIndex",
            "inputs": [
                {
                    "name": "token",
                    "type": "address",
                    "internalType": "address"
                }
            ],
            "outputs": [
                {
                    "name": "borrowerIndexOfToken",
                    "type": "uint256",
                    "internalType": "uint256"
                }
            ],
            "stateMutability": "view"
        },
        {
            "type": "function",
            "name": "s_lastAccuralTime",
            "inputs": [
                {
                    "name": "token",
                    "type": "address",
                    "internalType": "address"
                }
            ],
            "outputs": [
                {
                    "name": "",
                    "type": "uint256",
                    "internalType": "uint256"
                }
            ],
            "stateMutability": "view"
        },
        {
            "type": "function",
            "name": "s_tokenAddressesList",
            "inputs": [
                {
                    "name": "",
                    "type": "uint256",
                    "internalType": "uint256"
                }
            ],
            "outputs": [
                {
                    "name": "",
                    "type": "address",
                    "internalType": "address"
                }
            ],
            "stateMutability": "view"
        },
        {
            "type": "function",
            "name": "totalAmountRepaid",
            "inputs": [],
            "outputs": [
                {
                    "name": "",
                    "type": "uint256",
                    "internalType": "uint256"
                }
            ],
            "stateMutability": "view"
        },
        {
            "type": "function",
            "name": "totalBorrowed",
            "inputs": [],
            "outputs": [
                {
                    "name": "",
                    "type": "uint256",
                    "internalType": "uint256"
                }
            ],
            "stateMutability": "view"
        },
        {
            "type": "function",
            "name": "withdrawCollateral",
            "inputs": [
                {
                    "name": "token",
                    "type": "address",
                    "internalType": "address"
                },
                {
                    "name": "amount",
                    "type": "uint256",
                    "internalType": "uint256"
                }
            ],
            "outputs": [],
            "stateMutability": "nonpayable"
        },
        {
            "type": "function",
            "name": "withdrawDeposit",
            "inputs": [
                {
                    "name": "token",
                    "type": "address",
                    "internalType": "address"
                },
                {
                    "name": "amount",
                    "type": "uint256",
                    "internalType": "uint256"
                }
            ],
            "outputs": [],
            "stateMutability": "nonpayable"
        },
        {
            "type": "event",
            "name": "CollateralDeposited",
            "inputs": [
                {
                    "name": "user",
                    "type": "address",
                    "indexed": true,
                    "internalType": "address"
                },
                {
                    "name": "tokenAddress",
                    "type": "address",
                    "indexed": true,
                    "internalType": "address"
                },
                {
                    "name": "amountOfCollaterlDeposited",
                    "type": "uint256",
                    "indexed": false,
                    "internalType": "uint256"
                }
            ],
            "anonymous": false
        },
        {
            "type": "event",
            "name": "CollateralReleased",
            "inputs": [
                {
                    "name": "user",
                    "type": "address",
                    "indexed": true,
                    "internalType": "address"
                },
                {
                    "name": "token",
                    "type": "address",
                    "indexed": true,
                    "internalType": "address"
                },
                {
                    "name": "amount",
                    "type": "uint256",
                    "indexed": false,
                    "internalType": "uint256"
                }
            ],
            "anonymous": false
        },
        {
            "type": "event",
            "name": "CollateralWithdrawed",
            "inputs": [
                {
                    "name": "user",
                    "type": "address",
                    "indexed": true,
                    "internalType": "address"
                },
                {
                    "name": "token",
                    "type": "address",
                    "indexed": true,
                    "internalType": "address"
                },
                {
                    "name": "amount",
                    "type": "uint256",
                    "indexed": false,
                    "internalType": "uint256"
                }
            ],
            "anonymous": false
        },
        {
            "type": "event",
            "name": "DepositWithdrawn",
            "inputs": [
                {
                    "name": "user",
                    "type": "address",
                    "indexed": true,
                    "internalType": "address"
                },
                {
                    "name": "tokenAddress",
                    "type": "address",
                    "indexed": true,
                    "internalType": "address"
                },
                {
                    "name": "amount",
                    "type": "uint256",
                    "indexed": false,
                    "internalType": "uint256"
                }
            ],
            "anonymous": false
        },
        {
            "type": "event",
            "name": "LiquidityDeposited",
            "inputs": [
                {
                    "name": "user",
                    "type": "address",
                    "indexed": true,
                    "internalType": "address"
                },
                {
                    "name": "tokenAddress",
                    "type": "address",
                    "indexed": true,
                    "internalType": "address"
                },
                {
                    "name": "amountDeposited",
                    "type": "uint256",
                    "indexed": false,
                    "internalType": "uint256"
                },
                {
                    "name": "lpTokenMinted",
                    "type": "uint256",
                    "indexed": false,
                    "internalType": "uint256"
                }
            ],
            "anonymous": false
        },
        {
            "type": "event",
            "name": "LoanBorrowed",
            "inputs": [
                {
                    "name": "user",
                    "type": "address",
                    "indexed": true,
                    "internalType": "address"
                },
                {
                    "name": "token",
                    "type": "address",
                    "indexed": true,
                    "internalType": "address"
                },
                {
                    "name": "loadnDetails",
                    "type": "tuple",
                    "indexed": true,
                    "internalType": "struct LendingPoolContract.LoanDetails",
                    "components": [
                        {
                            "name": "token",
                            "type": "address",
                            "internalType": "address"
                        },
                        {
                            "name": "amountBorrowedInUSDT",
                            "type": "uint256",
                            "internalType": "uint256"
                        },
                        {
                            "name": "principalAmount",
                            "type": "uint256",
                            "internalType": "uint256"
                        },
                        {
                            "name": "collateralUsed",
                            "type": "uint256",
                            "internalType": "uint256"
                        },
                        {
                            "name": "lastUpdate",
                            "type": "uint256",
                            "internalType": "uint256"
                        },
                        {
                            "name": "asset",
                            "type": "address",
                            "internalType": "address"
                        },
                        {
                            "name": "userBorrowIndex",
                            "type": "uint256",
                            "internalType": "uint256"
                        },
                        {
                            "name": "interestPaid",
                            "type": "uint256",
                            "internalType": "uint256"
                        },
                        {
                            "name": "liquidationPoint",
                            "type": "uint256",
                            "internalType": "uint256"
                        },
                        {
                            "name": "amountBorrowedInToken",
                            "type": "uint256",
                            "internalType": "uint256"
                        },
                        {
                            "name": "pendingInterest",
                            "type": "uint256",
                            "internalType": "uint256"
                        },
                        {
                            "name": "principalToRepay",
                            "type": "uint256",
                            "internalType": "uint256"
                        },
                        {
                            "name": "dueDate",
                            "type": "uint256",
                            "internalType": "uint256"
                        },
                        {
                            "name": "penaltyCount",
                            "type": "uint8",
                            "internalType": "uint8"
                        },
                        {
                            "name": "isLiquidated",
                            "type": "bool",
                            "internalType": "bool"
                        }
                    ]
                },
                {
                    "name": "amount",
                    "type": "uint256",
                    "indexed": false,
                    "internalType": "uint256"
                }
            ],
            "anonymous": false
        },
        {
            "type": "event",
            "name": "LoanLiquidated",
            "inputs": [
                {
                    "name": "user",
                    "type": "address",
                    "indexed": true,
                    "internalType": "address"
                },
                {
                    "name": "token",
                    "type": "address",
                    "indexed": true,
                    "internalType": "address"
                },
                {
                    "name": "loanAmount",
                    "type": "uint256",
                    "indexed": false,
                    "internalType": "uint256"
                },
                {
                    "name": "collateralValue",
                    "type": "uint256",
                    "indexed": false,
                    "internalType": "uint256"
                },
                {
                    "name": "liquidationPenalty",
                    "type": "uint256",
                    "indexed": false,
                    "internalType": "uint256"
                }
            ],
            "anonymous": false
        },
        {
            "type": "event",
            "name": "LoanRepaid",
            "inputs": [
                {
                    "name": "user",
                    "type": "address",
                    "indexed": true,
                    "internalType": "address"
                },
                {
                    "name": "token",
                    "type": "address",
                    "indexed": true,
                    "internalType": "address"
                },
                {
                    "name": "totalAmount",
                    "type": "uint256",
                    "indexed": false,
                    "internalType": "uint256"
                },
                {
                    "name": "interestPaid",
                    "type": "uint256",
                    "indexed": false,
                    "internalType": "uint256"
                },
                {
                    "name": "principalRepaid",
                    "type": "uint256",
                    "indexed": false,
                    "internalType": "uint256"
                }
            ],
            "anonymous": false
        },
        {
            "type": "event",
            "name": "LpTokensBurned",
            "inputs": [
                {
                    "name": "user",
                    "type": "address",
                    "indexed": true,
                    "internalType": "address"
                },
                {
                    "name": "amount",
                    "type": "uint256",
                    "indexed": false,
                    "internalType": "uint256"
                }
            ],
            "anonymous": false
        },
        {
            "type": "error",
            "name": "LendingPoolContract__AmountLessThanMinimumRepaymentAmount",
            "inputs": []
        },
        {
            "type": "error",
            "name": "LendingPoolContract__AmountShouldBeGreaterThanZero",
            "inputs": []
        },
        {
            "type": "error",
            "name": "LendingPoolContract__InsufficentBalance",
            "inputs": [
                {
                    "name": "amount",
                    "type": "uint256",
                    "internalType": "uint256"
                },
                {
                    "name": "availableAmount",
                    "type": "uint256",
                    "internalType": "uint256"
                }
            ]
        },
        {
            "type": "error",
            "name": "LendingPoolContract__InsufficentLpTokenBalance",
            "inputs": [
                {
                    "name": "availableBalance",
                    "type": "uint256",
                    "internalType": "uint256"
                }
            ]
        },
        {
            "type": "error",
            "name": "LendingPoolContract__InvalidRequestAmount",
            "inputs": []
        },
        {
            "type": "error",
            "name": "LendingPoolContract__LoanAmountExceeded",
            "inputs": []
        },
        {
            "type": "error",
            "name": "LendingPoolContract__LoanIsNotActive",
            "inputs": []
        },
        {
            "type": "error",
            "name": "LendingPoolContract__LoanPending",
            "inputs": []
        },
        {
            "type": "error",
            "name": "LendingPoolContract__LoanStillPending",
            "inputs": []
        },
        {
            "type": "error",
            "name": "LendingPoolContract__LpTokenMintFailed",
            "inputs": []
        },
        {
            "type": "error",
            "name": "LendingPoolContract__NotEnoughCollateral",
            "inputs": []
        },
        {
            "type": "error",
            "name": "LendingPoolContract__NotLiquidatable",
            "inputs": []
        },
        {
            "type": "error",
            "name": "LendingPoolContract__TokenAddressAndPriceFeedAddressMismatch",
            "inputs": [
                {
                    "name": "tokenAddressLength",
                    "type": "uint256",
                    "internalType": "uint256"
                },
                {
                    "name": "priceFeedAddressLength",
                    "type": "uint256",
                    "internalType": "uint256"
                }
            ]
        },
        {
            "type": "error",
            "name": "LendingPoolContract__TokenIsNotAllowedToDeposit",
            "inputs": [
                {
                    "name": "token",
                    "type": "address",
                    "internalType": "address"
                }
            ]
        },
        {
            "type": "error",
            "name": "ReentrancyGuardReentrantCall",
            "inputs": []
        }
    ],
    "bytecode": {
        "object": "0x60a060405234801562000010575f80fd5b5060405162007727380380620077278339818101604052810190620000369190620005c1565b60015f8190555083518551146200008a57845184516040517fe94792cc000000000000000000000000000000000000000000000000000000008152600401620000819291906200069d565b60405180910390fd5b5f5b85518110156200029c57670de0b6b3a764000060015f888481518110620000b857620000b7620006c8565b5b602002602001015173ffffffffffffffffffffffffffffffffffffffff1673ffffffffffffffffffffffffffffffffffffffff1681526020019081526020015f20819055504260025f888481518110620001175762000116620006c8565b5b602002602001015173ffffffffffffffffffffffffffffffffffffffff1673ffffffffffffffffffffffffffffffffffffffff1681526020019081526020015f2081905550848181518110620001725762000171620006c8565b5b602002602001015160035f888481518110620001935762000192620006c8565b5b602002602001015173ffffffffffffffffffffffffffffffffffffffff1673ffffffffffffffffffffffffffffffffffffffff1681526020019081526020015f205f6101000a81548173ffffffffffffffffffffffffffffffffffffffff021916908373ffffffffffffffffffffffffffffffffffffffff1602179055506010868281518110620002295762000228620006c8565b5b6020026020010151908060018154018082558091505060019003905f5260205f20015f9091909190916101000a81548173ffffffffffffffffffffffffffffffffffffffff021916908373ffffffffffffffffffffffffffffffffffffffff16021790555080806001019150506200008c565b508060135f6101000a81548173ffffffffffffffffffffffffffffffffffffffff021916908373ffffffffffffffffffffffffffffffffffffffff1602179055508273ffffffffffffffffffffffffffffffffffffffff1660808173ffffffffffffffffffffffffffffffffffffffff16815250508160075f6101000a81548173ffffffffffffffffffffffffffffffffffffffff021916908373ffffffffffffffffffffffffffffffffffffffff160217905550306080516040516200036390620003d5565b6200037092919062000706565b604051809103905ff0801580156200038a573d5f803e3d5ffd5b5060145f6101000a81548173ffffffffffffffffffffffffffffffffffffffff021916908373ffffffffffffffffffffffffffffffffffffffff160217905550505050505062000731565b611515806200621283390190565b5f604051905090565b5f80fd5b5f80fd5b5f80fd5b5f601f19601f8301169050919050565b7f4e487b71000000000000000000000000000000000000000000000000000000005f52604160045260245ffd5b6200044082620003f8565b810181811067ffffffffffffffff8211171562000462576200046162000408565b5b80604052505050565b5f62000476620003e3565b905062000484828262000435565b919050565b5f67ffffffffffffffff821115620004a657620004a562000408565b5b602082029050602081019050919050565b5f80fd5b5f73ffffffffffffffffffffffffffffffffffffffff82169050919050565b5f620004e682620004bb565b9050919050565b620004f881620004da565b811462000503575f80fd5b50565b5f815190506200051681620004ed565b92915050565b5f620005326200052c8462000489565b6200046b565b90508083825260208201905060208402830185811115620005585762000557620004b7565b5b835b8181101562000585578062000570888262000506565b8452602084019350506020810190506200055a565b5050509392505050565b5f82601f830112620005a657620005a5620003f4565b5b8151620005b88482602086016200051c565b91505092915050565b5f805f805f60a08688031215620005dd57620005dc620003ec565b5b5f86015167ffffffffffffffff811115620005fd57620005fc620003f0565b5b6200060b888289016200058f565b955050602086015167ffffffffffffffff8111156200062f576200062e620003f0565b5b6200063d888289016200058f565b9450506040620006508882890162000506565b9350506060620006638882890162000506565b9250506080620006768882890162000506565b9150509295509295909350565b5f819050919050565b620006978162000683565b82525050565b5f604082019050620006b25f8301856200068c565b620006c160208301846200068c565b9392505050565b7f4e487b71000000000000000000000000000000000000000000000000000000005f52603260045260245ffd5b6200070081620004da565b82525050565b5f6040820190506200071b5f830185620006f5565b6200072a6020830184620006f5565b9392505050565b608051615ac86200074a5f395f611f530152615ac85ff3fe6080604052600436106101e2575f3560e01c80636e04ff0d11610101578063aaf5eb6811610094578063c5e82ffd11610063578063c5e82ffd14610717578063c660d11214610753578063dc12ac0d1461078f578063ffc4c909146107cb576101e2565b8063aaf5eb6814610639578063afea2e4814610663578063b21eb1e61461069f578063be8d2d23146106db576101e2565b806392ed0cef116100d057806392ed0cef1461058f57806393a595f5146105cb578063a429fea2146105f3578063a5d5db0c1461061d576101e2565b80636e04ff0d146104c4578063763704ab146105015780637f07bfdc1461053d5780638c237c6914610565576101e2565b8063456db947116101795780635e6e6da2116101485780635e6e6da21461040a57806362965d8e1461043457806365cacaa41461045e5780636805d6ad14610488576101e2565b8063456db947146103665780634585e33b1461038e5780634c19386c146103b6578063527f6599146103e0576101e2565b806335c7e925116101b557806335c7e925146102b057806339b41b4a146102da578063419e31731461030257806342966c681461033e576101e2565b806315b68d7e146101e65780632301977c146102225780632fb893421461025e578063350c35e914610288575b5f80fd5b3480156101f1575f80fd5b5061020c60048036038101906102079190614cb3565b610807565b6040516102199190614cf6565b60405180910390f35b34801561022d575f80fd5b5061024860048036038101906102439190614d0f565b61084d565b6040516102559190614ed3565b60405180910390f35b348015610269575f80fd5b50610272610a2f565b60405161027f9190614efc565b60405180910390f35b348015610293575f80fd5b506102ae60048036038101906102a99190614f3f565b610a57565b005b3480156102bb575f80fd5b506102c4610df7565b6040516102d19190614cf6565b60405180910390f35b3480156102e5575f80fd5b5061030060048036038101906102fb9190614f3f565b610eea565b005b34801561030d575f80fd5b5061032860048036038101906103239190614cb3565b6116ae565b6040516103359190614cf6565b60405180910390f35b348015610349575f80fd5b50610364600480360381019061035f9190614f7d565b61172f565b005b348015610371575f80fd5b5061038c60048036038101906103879190614f3f565b6118a7565b005b348015610399575f80fd5b506103b460048036038101906103af9190615009565b612281565b005b3480156103c1575f80fd5b506103ca6123ec565b6040516103d79190614cf6565b60405180910390f35b3480156103eb575f80fd5b506103f46123f2565b6040516104019190614cf6565b60405180910390f35b348015610415575f80fd5b5061041e6123f8565b60405161042b9190614cf6565b60405180910390f35b34801561043f575f80fd5b5061044861249e565b6040516104559190614cf6565b60405180910390f35b348015610469575f80fd5b506104726124aa565b60405161047f9190614efc565b60405180910390f35b348015610493575f80fd5b506104ae60048036038101906104a99190614d0f565b6124d2565b6040516104bb9190614cf6565b60405180910390f35b3480156104cf575f80fd5b506104ea60048036038101906104e59190615009565b612554565b6040516104f89291906150ed565b60405180910390f35b34801561050c575f80fd5b5061052760048036038101906105229190614cb3565b612829565b6040516105349190614cf6565b60405180910390f35b348015610548575f80fd5b50610563600480360381019061055e9190614f3f565b61286f565b005b348015610570575f80fd5b50610579612c21565b6040516105869190614efc565b60405180910390f35b34801561059a575f80fd5b506105b560048036038101906105b09190614cb3565b612c49565b6040516105c29190614cf6565b60405180910390f35b3480156105d6575f80fd5b506105f160048036038101906105ec9190614f3f565b612c5e565b005b3480156105fe575f80fd5b5061060761348a565b6040516106149190614efc565b60405180910390f35b61063760048036038101906106329190614f3f565b6134af565b005b348015610644575f80fd5b5061064d613829565b60405161065a9190614cf6565b60405180910390f35b34801561066e575f80fd5b5061068960048036038101906106849190614f3f565b613835565b6040516106969190614cf6565b60405180910390f35b3480156106aa575f80fd5b506106c560048036038101906106c09190614cb3565b613985565b6040516106d29190614efc565b60405180910390f35b3480156106e6575f80fd5b5061070160048036038101906106fc9190614cb3565b6139ea565b60405161070e9190614cf6565b60405180910390f35b348015610722575f80fd5b5061073d60048036038101906107389190614cb3565b613a30565b60405161074a9190614cf6565b60405180910390f35b34801561075e575f80fd5b5061077960048036038101906107749190614f3f565b613a45565b6040516107869190614cf6565b60405180910390f35b34801561079a575f80fd5b506107b560048036038101906107b09190614cb3565b613b53565b6040516107c29190614cf6565b60405180910390f35b3480156107d6575f80fd5b506107f160048036038101906107ec9190614f7d565b613b99565b6040516107fe9190614efc565b60405180910390f35b5f60085f8373ffffffffffffffffffffffffffffffffffffffff1673ffffffffffffffffffffffffffffffffffffffff1681526020019081526020015f20549050919050565b610855614baf565b60055f8473ffffffffffffffffffffffffffffffffffffffff1673ffffffffffffffffffffffffffffffffffffffff1681526020019081526020015f205f8373ffffffffffffffffffffffffffffffffffffffff1673ffffffffffffffffffffffffffffffffffffffff1681526020019081526020015f20604051806101e00160405290815f82015f9054906101000a900473ffffffffffffffffffffffffffffffffffffffff1673ffffffffffffffffffffffffffffffffffffffff1673ffffffffffffffffffffffffffffffffffffffff16815260200160018201548152602001600282015481526020016003820154815260200160048201548152602001600582015f9054906101000a900473ffffffffffffffffffffffffffffffffffffffff1673ffffffffffffffffffffffffffffffffffffffff1673ffffffffffffffffffffffffffffffffffffffff16815260200160068201548152602001600782015481526020016008820154815260200160098201548152602001600a8201548152602001600b8201548152602001600c8201548152602001600d82015f9054906101000a900460ff1660ff1660ff168152602001600d820160019054906101000a900460ff161515151581525050905092915050565b5f60135f9054906101000a900473ffffffffffffffffffffffffffffffffffffffff16905090565b815f73ffffffffffffffffffffffffffffffffffffffff1660035f8373ffffffffffffffffffffffffffffffffffffffff1673ffffffffffffffffffffffffffffffffffffffff1681526020019081526020015f205f9054906101000a900473ffffffffffffffffffffffffffffffffffffffff1673ffffffffffffffffffffffffffffffffffffffff1603610b2457806040517f75f49383000000000000000000000000000000000000000000000000000000008152600401610b1b9190614efc565b60405180910390fd5b815f8103610b5e576040517fdd7f4eeb00000000000000000000000000000000000000000000000000000000815260040160405180910390fd5b610b66613bd4565b82600a5f3373ffffffffffffffffffffffffffffffffffffffff1673ffffffffffffffffffffffffffffffffffffffff1681526020019081526020015f205f8673ffffffffffffffffffffffffffffffffffffffff1673ffffffffffffffffffffffffffffffffffffffff1681526020019081526020015f20541015610c18576040517f3c7a073600000000000000000000000000000000000000000000000000000000815260040160405180910390fd5b82600a5f3373ffffffffffffffffffffffffffffffffffffffff1673ffffffffffffffffffffffffffffffffffffffff1681526020019081526020015f205f8673ffffffffffffffffffffffffffffffffffffffff1673ffffffffffffffffffffffffffffffffffffffff1681526020019081526020015f205f828254610c9f9190615148565b925050819055508260095f8673ffffffffffffffffffffffffffffffffffffffff1673ffffffffffffffffffffffffffffffffffffffff1681526020019081526020015f205f828254610cf29190615148565b9250508190555060145f9054906101000a900473ffffffffffffffffffffffffffffffffffffffff1673ffffffffffffffffffffffffffffffffffffffff1663cd60f59f3386866040518463ffffffff1660e01b8152600401610d579392919061517b565b5f604051808303815f87803b158015610d6e575f80fd5b505af1158015610d80573d5f803e3d5ffd5b505050508373ffffffffffffffffffffffffffffffffffffffff163373ffffffffffffffffffffffffffffffffffffffff167fef9786f020a42cd318223f933c92260dece31de5cd587b0d7c230fd2a056a11185604051610de19190614cf6565b60405180910390a3610df1613c18565b50505050565b5f805f90505f5b601080549050811015610ee257610ec860108281548110610e2257610e216151b0565b5b905f5260205f20015f9054906101000a900473ffffffffffffffffffffffffffffffffffffffff1660085f60108581548110610e6157610e606151b0565b5b905f5260205f20015f9054906101000a900473ffffffffffffffffffffffffffffffffffffffff1673ffffffffffffffffffffffffffffffffffffffff1673ffffffffffffffffffffffffffffffffffffffff1681526020019081526020015f2054613a45565b82610ed391906151dd565b91508080600101915050610dfe565b508091505090565b805f8103610f24576040517fdd7f4eeb00000000000000000000000000000000000000000000000000000000815260040160405180910390fd5b825f73ffffffffffffffffffffffffffffffffffffffff1660035f8373ffffffffffffffffffffffffffffffffffffffff1673ffffffffffffffffffffffffffffffffffffffff1681526020019081526020015f205f9054906101000a900473ffffffffffffffffffffffffffffffffffffffff1673ffffffffffffffffffffffffffffffffffffffff1603610ff157806040517f75f49383000000000000000000000000000000000000000000000000000000008152600401610fe89190614efc565b60405180910390fd5b610ff9613bd4565b6110376040518060400160405280601f81526020017f3d3d3d206465706f7369744c69717569646974792063616c6c6564203d3d3d00815250613c21565b6110766040518060400160405280600581526020017f557365723a00000000000000000000000000000000000000000000000000000081525033613cba565b6110b56040518060400160405280600681526020017f546f6b656e3a000000000000000000000000000000000000000000000000000081525085613cba565b6110f46040518060400160405280600781526020017f416d6f756e743a0000000000000000000000000000000000000000000000000081525084613d56565b60145f9054906101000a900473ffffffffffffffffffffffffffffffffffffffff1673ffffffffffffffffffffffffffffffffffffffff1663a745f78e3386866040518463ffffffff1660e01b81526004016111529392919061517b565b5f604051808303815f87803b158015611169575f80fd5b505af115801561117b573d5f803e3d5ffd5b505050506111bd6040518060400160405280601881526020017f5661756c74206465706f736974207375636365737366756c0000000000000000815250613c21565b5f60085f8673ffffffffffffffffffffffffffffffffffffffff1673ffffffffffffffffffffffffffffffffffffffff1681526020019081526020015f2054905061123d816040518060400160405280600381526020017f6c69710000000000000000000000000000000000000000000000000000000000815250613df2565b5f60075f9054906101000a900473ffffffffffffffffffffffffffffffffffffffff1673ffffffffffffffffffffffffffffffffffffffff166318160ddd6040518163ffffffff1660e01b8152600401602060405180830381865afa1580156112a8573d5f803e3d5ffd5b505050506040513d601f19601f820116820180604052508101906112cc9190615224565b90505f808214806112dc57505f83145b156112e957859050611303565b8282876112f6919061524f565b61130091906152bd565b90505b6113416040518060400160405280601c81526020017f7570646174696e6720746865207374617465207661726961626c657300000000815250613c21565b6113c260045f3373ffffffffffffffffffffffffffffffffffffffff1673ffffffffffffffffffffffffffffffffffffffff1681526020019081526020015f205f8973ffffffffffffffffffffffffffffffffffffffff1673ffffffffffffffffffffffffffffffffffffffff1681526020019081526020015f2054613e8e565b61140860085f8973ffffffffffffffffffffffffffffffffffffffff1673ffffffffffffffffffffffffffffffffffffffff1681526020019081526020015f2054613e8e565b8560045f3373ffffffffffffffffffffffffffffffffffffffff1673ffffffffffffffffffffffffffffffffffffffff1681526020019081526020015f205f8973ffffffffffffffffffffffffffffffffffffffff1673ffffffffffffffffffffffffffffffffffffffff1681526020019081526020015f205f82825461148f91906151dd565b925050819055508560085f8973ffffffffffffffffffffffffffffffffffffffff1673ffffffffffffffffffffffffffffffffffffffff1681526020019081526020015f205f8282546114e291906151dd565b925050819055506115276040518060400160405280601081526020017f6d696e74696e67206c70746f6b656e7300000000000000000000000000000000815250613c21565b6115313382613f27565b61156f6040518060400160405280601381526020017f6d696e74696e67207375636365737366756c6c00000000000000000000000000815250613c21565b6115f060045f3373ffffffffffffffffffffffffffffffffffffffff1673ffffffffffffffffffffffffffffffffffffffff1681526020019081526020015f205f8973ffffffffffffffffffffffffffffffffffffffff1673ffffffffffffffffffffffffffffffffffffffff1681526020019081526020015f2054613e8e565b61163660085f8973ffffffffffffffffffffffffffffffffffffffff1673ffffffffffffffffffffffffffffffffffffffff1681526020019081526020015f2054613e8e565b8673ffffffffffffffffffffffffffffffffffffffff163373ffffffffffffffffffffffffffffffffffffffff167f44504979f82d498dad8a0687fc02e140be70b1b4ab3b9e23c6ffc1d04410194a88846040516116959291906152ed565b60405180910390a35050506116a8613c18565b50505050565b5f600a5f3373ffffffffffffffffffffffffffffffffffffffff1673ffffffffffffffffffffffffffffffffffffffff1681526020019081526020015f205f8373ffffffffffffffffffffffffffffffffffffffff1673ffffffffffffffffffffffffffffffffffffffff1681526020019081526020015f20549050919050565b805f8103611769576040517fdd7f4eeb00000000000000000000000000000000000000000000000000000000815260040160405180910390fd5b5f60075f9054906101000a900473ffffffffffffffffffffffffffffffffffffffff1673ffffffffffffffffffffffffffffffffffffffff166370a08231336040518263ffffffff1660e01b81526004016117c49190614efc565b602060405180830381865afa1580156117df573d5f803e3d5ffd5b505050506040513d601f19601f820116820180604052508101906118039190615224565b90508281101561184a57806040517f2fd681410000000000000000000000000000000000000000000000000000000081526004016118419190614cf6565b60405180910390fd5b611854338461408b565b3373ffffffffffffffffffffffffffffffffffffffff167fddc27b1bc9a4157643da059066b645eee138fbfc8b090a740bdfbf826cf9b2c28460405161189a9190614cf6565b60405180910390a2505050565b805f81036118e1576040517fdd7f4eeb00000000000000000000000000000000000000000000000000000000815260040160405180910390fd5b825f73ffffffffffffffffffffffffffffffffffffffff1660035f8373ffffffffffffffffffffffffffffffffffffffff1673ffffffffffffffffffffffffffffffffffffffff1681526020019081526020015f205f9054906101000a900473ffffffffffffffffffffffffffffffffffffffff1673ffffffffffffffffffffffffffffffffffffffff16036119ae57806040517f75f493830000000000000000000000000000000000000000000000000000000081526004016119a59190614efc565b60405180910390fd5b5f60055f3373ffffffffffffffffffffffffffffffffffffffff1673ffffffffffffffffffffffffffffffffffffffff1681526020019081526020015f205f8673ffffffffffffffffffffffffffffffffffffffff1673ffffffffffffffffffffffffffffffffffffffff1681526020019081526020015f20600101541115611a63576040517f825984e500000000000000000000000000000000000000000000000000000000815260040160405180910390fd5b5f600a5f3373ffffffffffffffffffffffffffffffffffffffff1673ffffffffffffffffffffffffffffffffffffffff1681526020019081526020015f205f8673ffffffffffffffffffffffffffffffffffffffff1673ffffffffffffffffffffffffffffffffffffffff1681526020019081526020015f205490505f670de0b6b3a7640000670a688906bd8b000083611afd919061524f565b611b0791906152bd565b90505f611b148783613a45565b905080861115611b50576040517f0cd58b9e00000000000000000000000000000000000000000000000000000000815260040160405180910390fd5b600c5f3373ffffffffffffffffffffffffffffffffffffffff1673ffffffffffffffffffffffffffffffffffffffff1681526020019081526020015f205f8873ffffffffffffffffffffffffffffffffffffffff1673ffffffffffffffffffffffffffffffffffffffff1681526020019081526020015f205f9054906101000a900460ff16611d6557600f33908060018154018082558091505060019003905f5260205f20015f9091909190916101000a81548173ffffffffffffffffffffffffffffffffffffffff021916908373ffffffffffffffffffffffffffffffffffffffff160217905550600e5f3373ffffffffffffffffffffffffffffffffffffffff1673ffffffffffffffffffffffffffffffffffffffff1681526020019081526020015f2087908060018154018082558091505060019003905f5260205f20015f9091909190916101000a81548173ffffffffffffffffffffffffffffffffffffffff021916908373ffffffffffffffffffffffffffffffffffffffff1602179055506001600c5f3373ffffffffffffffffffffffffffffffffffffffff1673ffffffffffffffffffffffffffffffffffffffff1681526020019081526020015f205f8973ffffffffffffffffffffffffffffffffffffffff1673ffffffffffffffffffffffffffffffffffffffff1681526020019081526020015f205f6101000a81548160ff0219169083151502179055505b8560115f828254611d7691906151dd565b925050819055505f611d888888613835565b905080600d5f8a73ffffffffffffffffffffffffffffffffffffffff1673ffffffffffffffffffffffffffffffffffffffff1681526020019081526020015f205f828254611dd691906151dd565b925050819055505f60055f3373ffffffffffffffffffffffffffffffffffffffff1673ffffffffffffffffffffffffffffffffffffffff1681526020019081526020015f205f8a73ffffffffffffffffffffffffffffffffffffffff1673ffffffffffffffffffffffffffffffffffffffff1681526020019081526020015f20905087816001015f828254611e6b91906151dd565b9250508190555087816002015f828254611e8591906151dd565b925050819055508781600b015f828254611e9f91906151dd565b9250508190555088816005015f6101000a81548173ffffffffffffffffffffffffffffffffffffffff021916908373ffffffffffffffffffffffffffffffffffffffff1602179055508181600901819055505f670a688906bd8b0000670de0b6b3a76400008a611f0f919061524f565b611f1991906152bd565b90505f611f268b83613835565b905080836003018190555042836004018190555062ed4e0042611f4991906151dd565b83600c01819055507f0000000000000000000000000000000000000000000000000000000000000000835f015f6101000a81548173ffffffffffffffffffffffffffffffffffffffff021916908373ffffffffffffffffffffffffffffffffffffffff16021790555060015f8c73ffffffffffffffffffffffffffffffffffffffff1673ffffffffffffffffffffffffffffffffffffffff1681526020019081526020015f205483600601819055508060095f8d73ffffffffffffffffffffffffffffffffffffffff1673ffffffffffffffffffffffffffffffffffffffff1681526020019081526020015f205f8282546120449190615148565b9250508190555080600a5f3373ffffffffffffffffffffffffffffffffffffffff1673ffffffffffffffffffffffffffffffffffffffff1681526020019081526020015f205f8d73ffffffffffffffffffffffffffffffffffffffff1673ffffffffffffffffffffffffffffffffffffffff1681526020019081526020015f205f8282546120d29190615148565b9250508190555080600b5f3373ffffffffffffffffffffffffffffffffffffffff1673ffffffffffffffffffffffffffffffffffffffff1681526020019081526020015f205f8d73ffffffffffffffffffffffffffffffffffffffff1673ffffffffffffffffffffffffffffffffffffffff1681526020019081526020015f205f82825461216091906151dd565b925050819055506121708b61416b565b60145f9054906101000a900473ffffffffffffffffffffffffffffffffffffffff1673ffffffffffffffffffffffffffffffffffffffff16633938702f338c6040518363ffffffff1660e01b81526004016121cc929190615314565b5f604051808303815f87803b1580156121e3575f80fd5b505af11580156121f5573d5f803e3d5ffd5b50505050826040516122079190615643565b60405180910390208b73ffffffffffffffffffffffffffffffffffffffff163373ffffffffffffffffffffffffffffffffffffffff167f8234a84e88365d63561d021adfdafd8dfef8cf83025a2d9fe241f47d107aa6d78d60405161226c9190614cf6565b60405180910390a45050505050505050505050565b5f8083838101906122929190615699565b915091505f60055f8473ffffffffffffffffffffffffffffffffffffffff1673ffffffffffffffffffffffffffffffffffffffff1681526020019081526020015f205f8373ffffffffffffffffffffffffffffffffffffffff1673ffffffffffffffffffffffffffffffffffffffff1681526020019081526020015f20905080600c0154421015612325575050506123e8565b600281600d015f9054906101000a900460ff1660ff1610156123d95780600d015f81819054906101000a900460ff1680929190612361906156d7565b91906101000a81548160ff021916908360ff1602179055505062278d004261238991906151dd565b81600c0181905550670de0b6b3a764000066b1a2bc2ec5000082600101546123b1919061524f565b6123bb91906152bd565b816001015f8282546123cd91906151dd565b925050819055506123e4565b6123e3838361437a565b5b5050505b5050565b60115481565b60125481565b5f60075f9054906101000a900473ffffffffffffffffffffffffffffffffffffffff1673ffffffffffffffffffffffffffffffffffffffff166318160ddd6040518163ffffffff1660e01b8152600401602060405180830381865afa158015612463573d5f803e3d5ffd5b505050506040513d601f19601f820116820180604052508101906124879190615224565b61248f610df7565b61249991906152bd565b905090565b670a688906bd8b000081565b5f60145f9054906101000a900473ffffffffffffffffffffffffffffffffffffffff16905090565b5f60045f8473ffffffffffffffffffffffffffffffffffffffff1673ffffffffffffffffffffffffffffffffffffffff1681526020019081526020015f205f8373ffffffffffffffffffffffffffffffffffffffff1673ffffffffffffffffffffffffffffffffffffffff1681526020019081526020015f2054905092915050565b5f60605f5b600f8054905081101561280c575f600f828154811061257b5761257a6151b0565b5b905f5260205f20015f9054906101000a900473ffffffffffffffffffffffffffffffffffffffff1690505f600e5f8373ffffffffffffffffffffffffffffffffffffffff1673ffffffffffffffffffffffffffffffffffffffff1681526020019081526020015f2080548060200260200160405190810160405280929190818152602001828054801561266057602002820191905f5260205f20905b815f9054906101000a900473ffffffffffffffffffffffffffffffffffffffff1673ffffffffffffffffffffffffffffffffffffffff1681526020019060010190808311612617575b505050505090505f5b81518110156127fc575f60055f3373ffffffffffffffffffffffffffffffffffffffff1673ffffffffffffffffffffffffffffffffffffffff1681526020019081526020015f205f8484815181106126c4576126c36151b0565b5b602002602001015173ffffffffffffffffffffffffffffffffffffffff1673ffffffffffffffffffffffffffffffffffffffff1681526020019081526020015f2090505f816001015403612730575f60405180602001604052805f815250965096505050505050612822565b5f612759848481518110612747576127466151b0565b5b60200260200101518360030154613a45565b90505f670de0b6b3a764000066b1a2bc2ec50000846001015461277c919061524f565b61278691906152bd565b905082600c015442118061279957508082105b156127ec576001868686815181106127b4576127b36151b0565b5b60200260200101516040516020016127cd9291906156ff565b6040516020818303038152906040529850985050505050505050612822565b5050508080600101915050612669565b5050508080600101915050612559565b505f60405180602001604052805f815250915091505b9250929050565b5f600d5f8373ffffffffffffffffffffffffffffffffffffffff1673ffffffffffffffffffffffffffffffffffffffff1681526020019081526020015f20549050919050565b805f81036128a9576040517fdd7f4eeb00000000000000000000000000000000000000000000000000000000815260040160405180910390fd5b825f73ffffffffffffffffffffffffffffffffffffffff1660035f8373ffffffffffffffffffffffffffffffffffffffff1673ffffffffffffffffffffffffffffffffffffffff1681526020019081526020015f205f9054906101000a900473ffffffffffffffffffffffffffffffffffffffff1673ffffffffffffffffffffffffffffffffffffffff160361297657806040517f75f4938300000000000000000000000000000000000000000000000000000000815260040161296d9190614efc565b60405180910390fd5b61297e613bd4565b5f60045f3373ffffffffffffffffffffffffffffffffffffffff1673ffffffffffffffffffffffffffffffffffffffff1681526020019081526020015f205f8673ffffffffffffffffffffffffffffffffffffffff1673ffffffffffffffffffffffffffffffffffffffff1681526020019081526020015f2054905083811015612a415783816040517f7a9a6b47000000000000000000000000000000000000000000000000000000008152600401612a389291906152ed565b60405180910390fd5b8360045f3373ffffffffffffffffffffffffffffffffffffffff1673ffffffffffffffffffffffffffffffffffffffff1681526020019081526020015f205f8773ffffffffffffffffffffffffffffffffffffffff1673ffffffffffffffffffffffffffffffffffffffff1681526020019081526020015f205f828254612ac89190615148565b925050819055508360085f8773ffffffffffffffffffffffffffffffffffffffff1673ffffffffffffffffffffffffffffffffffffffff1681526020019081526020015f205f828254612b1b9190615148565b9250508190555060145f9054906101000a900473ffffffffffffffffffffffffffffffffffffffff1673ffffffffffffffffffffffffffffffffffffffff1663ddf9f55a3387876040518463ffffffff1660e01b8152600401612b809392919061517b565b5f604051808303815f87803b158015612b97575f80fd5b505af1158015612ba9573d5f803e3d5ffd5b505050508473ffffffffffffffffffffffffffffffffffffffff163373ffffffffffffffffffffffffffffffffffffffff167f2cd6435b1b961c13f55202979edd0765a809f69a539d8a477436c94c1211e43e86604051612c0a9190614cf6565b60405180910390a350612c1b613c18565b50505050565b5f60075f9054906101000a900473ffffffffffffffffffffffffffffffffffffffff16905090565b6002602052805f5260405f205f915090505481565b815f73ffffffffffffffffffffffffffffffffffffffff1660035f8373ffffffffffffffffffffffffffffffffffffffff1673ffffffffffffffffffffffffffffffffffffffff1681526020019081526020015f205f9054906101000a900473ffffffffffffffffffffffffffffffffffffffff1673ffffffffffffffffffffffffffffffffffffffff1603612d2b57806040517f75f49383000000000000000000000000000000000000000000000000000000008152600401612d229190614efc565b60405180910390fd5b815f8103612d65576040517fdd7f4eeb00000000000000000000000000000000000000000000000000000000815260040160405180910390fd5b612d6d613bd4565b5f60055f3373ffffffffffffffffffffffffffffffffffffffff1673ffffffffffffffffffffffffffffffffffffffff1681526020019081526020015f205f8673ffffffffffffffffffffffffffffffffffffffff1673ffffffffffffffffffffffffffffffffffffffff1681526020019081526020015f2090505f816001015490505f826006015490505f8111612e3a576040517f08c379a0000000000000000000000000000000000000000000000000000000008152600401612e3190615780565b60405180910390fd5b5f8160015f8a73ffffffffffffffffffffffffffffffffffffffff1673ffffffffffffffffffffffffffffffffffffffff1681526020019081526020015f205484612e85919061524f565b612e8f91906152bd565b90505f670de0b6b3a7640000662386f26fc1000083612eae919061524f565b612eb891906152bd565b90505f8483612ec79190615148565b905082891115612f03576040517f1997d82400000000000000000000000000000000000000000000000000000000815260040160405180910390fd5b81891015612f3d576040517f9c1e585a00000000000000000000000000000000000000000000000000000000815260040160405180910390fd5b60145f9054906101000a900473ffffffffffffffffffffffffffffffffffffffff1673ffffffffffffffffffffffffffffffffffffffff1663502ea3a0338b6040518363ffffffff1660e01b8152600401612f99929190615314565b5f604051808303815f87803b158015612fb0575f80fd5b505af1158015612fc2573d5f803e3d5ffd5b505050505f80828b11612ffc578a91508a83612fde9190615148565b88600a01819055505f90508185612ff59190615148565b94506130a6565b8291505f838c61300c9190615148565b905088600a015481101561303c578089600a015f82825461302d9190615148565b925050819055505f9050613058565b88600a01548161304c9190615148565b90505f89600a01819055505b88600b015481106130785788600b015491505f89600b0181905550613096565b8091508089600b015f82825461308e9190615148565b925050819055505b8b866130a29190615148565b9550505b5f8111156130c75780876130ba9190615148565b88600101819055506130d1565b8688600101819055505b81886007015f8282546130e491906151dd565b925050819055508a60125f8282546130fc91906151dd565b925050819055508060115f8282546131149190615148565b925050819055506131248c61416b565b5f8860010154036133bb57613139338d614933565b600c5f3373ffffffffffffffffffffffffffffffffffffffff1673ffffffffffffffffffffffffffffffffffffffff1681526020019081526020015f205f8d73ffffffffffffffffffffffffffffffffffffffff1673ffffffffffffffffffffffffffffffffffffffff1681526020019081526020015f205f6101000a81549060ff021916905560055f3373ffffffffffffffffffffffffffffffffffffffff1673ffffffffffffffffffffffffffffffffffffffff1681526020019081526020015f205f8d73ffffffffffffffffffffffffffffffffffffffff1673ffffffffffffffffffffffffffffffffffffffff1681526020019081526020015f205f8082015f6101000a81549073ffffffffffffffffffffffffffffffffffffffff0219169055600182015f9055600282015f9055600382015f9055600482015f9055600582015f6101000a81549073ffffffffffffffffffffffffffffffffffffffff0219169055600682015f9055600782015f9055600882015f9055600982015f9055600a82015f9055600b82015f9055600c82015f9055600d82015f6101000a81549060ff0219169055600d820160016101000a81549060ff021916905550508760090154600d5f8e73ffffffffffffffffffffffffffffffffffffffff1673ffffffffffffffffffffffffffffffffffffffff1681526020019081526020015f205f82825461334a9190615148565b925050819055508b73ffffffffffffffffffffffffffffffffffffffff163373ffffffffffffffffffffffffffffffffffffffff167f61934a17c11b5044643161fe4f0b02bec50109892c048066a3b19507bdc59bb98d6040516133ae9190614cf6565b60405180910390a361340b565b42886004018190555060015f8d73ffffffffffffffffffffffffffffffffffffffff1673ffffffffffffffffffffffffffffffffffffffff1681526020019081526020015f205488600601819055505b8b73ffffffffffffffffffffffffffffffffffffffff163373ffffffffffffffffffffffffffffffffffffffff167fa09e3a8dd1d39c7f83e4b20c341d524c72ff5d48431597dba49630368da3d9888d858560405161346c9392919061579e565b60405180910390a35050505050505050613484613c18565b50505050565b60135f9054906101000a900473ffffffffffffffffffffffffffffffffffffffff1681565b805f81036134e9576040517fdd7f4eeb00000000000000000000000000000000000000000000000000000000815260040160405180910390fd5b825f73ffffffffffffffffffffffffffffffffffffffff1660035f8373ffffffffffffffffffffffffffffffffffffffff1673ffffffffffffffffffffffffffffffffffffffff1681526020019081526020015f205f9054906101000a900473ffffffffffffffffffffffffffffffffffffffff1673ffffffffffffffffffffffffffffffffffffffff16036135b657806040517f75f493830000000000000000000000000000000000000000000000000000000081526004016135ad9190614efc565b60405180910390fd5b6135be613bd4565b60145f9054906101000a900473ffffffffffffffffffffffffffffffffffffffff1673ffffffffffffffffffffffffffffffffffffffff1663f970c3b73386866040518463ffffffff1660e01b815260040161361c9392919061517b565b5f604051808303815f87803b158015613633575f80fd5b505af1158015613645573d5f803e3d5ffd5b5050505082600a5f3373ffffffffffffffffffffffffffffffffffffffff1673ffffffffffffffffffffffffffffffffffffffff1681526020019081526020015f205f8673ffffffffffffffffffffffffffffffffffffffff1673ffffffffffffffffffffffffffffffffffffffff1681526020019081526020015f205f8282546136d091906151dd565b9250508190555061371d60095f8673ffffffffffffffffffffffffffffffffffffffff1673ffffffffffffffffffffffffffffffffffffffff1681526020019081526020015f2054613e8e565b8260095f8673ffffffffffffffffffffffffffffffffffffffff1673ffffffffffffffffffffffffffffffffffffffff1681526020019081526020015f205f82825461376991906151dd565b925050819055506137b660095f8673ffffffffffffffffffffffffffffffffffffffff1673ffffffffffffffffffffffffffffffffffffffff1681526020019081526020015f2054613e8e565b8373ffffffffffffffffffffffffffffffffffffffff163373ffffffffffffffffffffffffffffffffffffffff167ff1c0dd7e9b98bbff859029005ef89b127af049cd18df1a8d79f0b7e019911e56856040516138139190614cf6565b60405180910390a3613823613c18565b50505050565b670de0b6b3a764000081565b5f8060035f8573ffffffffffffffffffffffffffffffffffffffff1673ffffffffffffffffffffffffffffffffffffffff1681526020019081526020015f205f9054906101000a900473ffffffffffffffffffffffffffffffffffffffff1690505f8173ffffffffffffffffffffffffffffffffffffffff1663feaf968c6040518163ffffffff1660e01b815260040160a060405180830381865afa1580156138e0573d5f803e3d5ffd5b505050506040513d601f19601f820116820180604052508101906139049190615845565b5050509150505f811361394c576040517f08c379a000000000000000000000000000000000000000000000000000000000815260040161394390615906565b60405180910390fd5b6402540be4008161395d919061524f565b670de0b6b3a764000085613971919061524f565b61397b91906152bd565b9250505092915050565b5f60035f8373ffffffffffffffffffffffffffffffffffffffff1673ffffffffffffffffffffffffffffffffffffffff1681526020019081526020015f205f9054906101000a900473ffffffffffffffffffffffffffffffffffffffff169050919050565b5f60095f8373ffffffffffffffffffffffffffffffffffffffff1673ffffffffffffffffffffffffffffffffffffffff1681526020019081526020015f20549050919050565b6001602052805f5260405f205f915090505481565b5f8060035f8573ffffffffffffffffffffffffffffffffffffffff1673ffffffffffffffffffffffffffffffffffffffff1681526020019081526020015f205f9054906101000a900473ffffffffffffffffffffffffffffffffffffffff1690505f8173ffffffffffffffffffffffffffffffffffffffff1663feaf968c6040518163ffffffff1660e01b815260040160a060405180830381865afa158015613af0573d5f803e3d5ffd5b505050506040513d601f19601f82011682018060405250810190613b149190615845565b505050915050670de0b6b3a7640000846402540be40083613b35919061524f565b613b3f919061524f565b613b4991906152bd565b9250505092915050565b5f60015f8373ffffffffffffffffffffffffffffffffffffffff1673ffffffffffffffffffffffffffffffffffffffff1681526020019081526020015f20549050919050565b60108181548110613ba8575f80fd5b905f5260205f20015f915054906101000a900473ffffffffffffffffffffffffffffffffffffffff1681565b60025f5403613c0f576040517f3ee5aeb500000000000000000000000000000000000000000000000000000000815260040160405180910390fd5b60025f81905550565b60015f81905550565b613cb781604051602401613c359190615966565b6040516020818303038152906040527f41304fac000000000000000000000000000000000000000000000000000000007bffffffffffffffffffffffffffffffffffffffffffffffffffffffff19166020820180517bffffffffffffffffffffffffffffffffffffffffffffffffffffffff8381831617835250505050614b6b565b50565b613d528282604051602401613cd0929190615986565b6040516020818303038152906040527f319af333000000000000000000000000000000000000000000000000000000007bffffffffffffffffffffffffffffffffffffffffffffffffffffffff19166020820180517bffffffffffffffffffffffffffffffffffffffffffffffffffffffff8381831617835250505050614b6b565b5050565b613dee8282604051602401613d6c9291906159b4565b6040516020818303038152906040527fb60e72cc000000000000000000000000000000000000000000000000000000007bffffffffffffffffffffffffffffffffffffffffffffffffffffffff19166020820180517bffffffffffffffffffffffffffffffffffffffffffffffffffffffff8381831617835250505050614b6b565b5050565b613e8a8282604051602401613e089291906159e2565b6040516020818303038152906040527f643fd0df000000000000000000000000000000000000000000000000000000007bffffffffffffffffffffffffffffffffffffffffffffffffffffffff19166020820180517bffffffffffffffffffffffffffffffffffffffffffffffffffffffff8381831617835250505050614b6b565b5050565b613f2481604051602401613ea29190614cf6565b6040516020818303038152906040527ff82c50f1000000000000000000000000000000000000000000000000000000007bffffffffffffffffffffffffffffffffffffffffffffffffffffffff19166020820180517bffffffffffffffffffffffffffffffffffffffffffffffffffffffff8381831617835250505050614b6b565b50565b805f8103613f61576040517fdd7f4eeb00000000000000000000000000000000000000000000000000000000815260040160405180910390fd5b60075f9054906101000a900473ffffffffffffffffffffffffffffffffffffffff1673ffffffffffffffffffffffffffffffffffffffff166340c10f1984846040518363ffffffff1660e01b8152600401613fbd929190615314565b6020604051808303815f875af1158015613fd9573d5f803e3d5ffd5b505050506040513d601f19601f82011682018060405250810190613ffd9190615a3a565b614033576040517fa1650ce000000000000000000000000000000000000000000000000000000000815260040160405180910390fd5b8160065f8573ffffffffffffffffffffffffffffffffffffffff1673ffffffffffffffffffffffffffffffffffffffff1681526020019081526020015f205f82825461407f91906151dd565b92505081905550505050565b60075f9054906101000a900473ffffffffffffffffffffffffffffffffffffffff1673ffffffffffffffffffffffffffffffffffffffff16639dc29fac83836040518363ffffffff1660e01b81526004016140e7929190615314565b5f604051808303815f87803b1580156140fe575f80fd5b505af1158015614110573d5f803e3d5ffd5b505050508060065f8473ffffffffffffffffffffffffffffffffffffffff1673ffffffffffffffffffffffffffffffffffffffff1681526020019081526020015f205f8282546141609190615148565b925050819055505050565b5f60025f8373ffffffffffffffffffffffffffffffffffffffff1673ffffffffffffffffffffffffffffffffffffffff1681526020019081526020015f2054426141b59190615148565b90505f81036141c45750614377565b5f60135f9054906101000a900473ffffffffffffffffffffffffffffffffffffffff1673ffffffffffffffffffffffffffffffffffffffff1663d3ea0f89846040518263ffffffff1660e01b815260040161421f9190614efc565b602060405180830381865afa15801561423a573d5f803e3d5ffd5b505050506040513d601f19601f8201168201806040525081019061425e9190615224565b90505f6301e133808261427191906152bd565b90505f8382614280919061524f565b9050670de0b6b3a76400008160015f8873ffffffffffffffffffffffffffffffffffffffff1673ffffffffffffffffffffffffffffffffffffffff1681526020019081526020015f20546142d4919061524f565b6142de91906152bd565b60015f8773ffffffffffffffffffffffffffffffffffffffff1673ffffffffffffffffffffffffffffffffffffffff1681526020019081526020015f205f82825461432991906151dd565b925050819055504260025f8773ffffffffffffffffffffffffffffffffffffffff1673ffffffffffffffffffffffffffffffffffffffff1681526020019081526020015f2081905550505050505b50565b805f73ffffffffffffffffffffffffffffffffffffffff1660035f8373ffffffffffffffffffffffffffffffffffffffff1673ffffffffffffffffffffffffffffffffffffffff1681526020019081526020015f205f9054906101000a900473ffffffffffffffffffffffffffffffffffffffff1673ffffffffffffffffffffffffffffffffffffffff160361444757806040517f75f4938300000000000000000000000000000000000000000000000000000000815260040161443e9190614efc565b60405180910390fd5b61444f613bd4565b5f60055f8573ffffffffffffffffffffffffffffffffffffffff1673ffffffffffffffffffffffffffffffffffffffff1681526020019081526020015f205f8473ffffffffffffffffffffffffffffffffffffffff1673ffffffffffffffffffffffffffffffffffffffff1681526020019081526020015f2090505f816001015490505f810361450b576040517f9e75e24100000000000000000000000000000000000000000000000000000000815260040160405180910390fd5b5f61451a858460030154613a45565b90505f670de0b6b3a764000066b1a2bc2ec5000084614539919061524f565b61454391906152bd565b905080821180156145675750600284600d015f9054906101000a900460ff1660ff16105b1561459e576040517f30dc983800000000000000000000000000000000000000000000000000000000815260040160405180910390fd5b8360090154600d5f8873ffffffffffffffffffffffffffffffffffffffff1673ffffffffffffffffffffffffffffffffffffffff1681526020019081526020015f205f8282546145ee9190615148565b92505081905550836003015460085f8873ffffffffffffffffffffffffffffffffffffffff1673ffffffffffffffffffffffffffffffffffffffff1681526020019081526020015f205f82825461464591906151dd565b92505081905550601154831115614662575f60118190555061467b565b8260115f8282546146739190615148565b925050819055505b600c5f8873ffffffffffffffffffffffffffffffffffffffff1673ffffffffffffffffffffffffffffffffffffffff1681526020019081526020015f205f8773ffffffffffffffffffffffffffffffffffffffff1673ffffffffffffffffffffffffffffffffffffffff1681526020019081526020015f205f6101000a81549060ff021916905560055f8873ffffffffffffffffffffffffffffffffffffffff1673ffffffffffffffffffffffffffffffffffffffff1681526020019081526020015f205f8773ffffffffffffffffffffffffffffffffffffffff1673ffffffffffffffffffffffffffffffffffffffff1681526020019081526020015f205f8082015f6101000a81549073ffffffffffffffffffffffffffffffffffffffff0219169055600182015f9055600282015f9055600382015f9055600482015f9055600582015f6101000a81549073ffffffffffffffffffffffffffffffffffffffff0219169055600682015f9055600782015f9055600882015f9055600982015f9055600a82015f9055600b82015f9055600c82015f9055600d82015f6101000a81549060ff0219169055600d820160016101000a81549060ff021916905550505f600b5f8973ffffffffffffffffffffffffffffffffffffffff1673ffffffffffffffffffffffffffffffffffffffff1681526020019081526020015f205f8873ffffffffffffffffffffffffffffffffffffffff1673ffffffffffffffffffffffffffffffffffffffff1681526020019081526020015f20819055508573ffffffffffffffffffffffffffffffffffffffff168773ffffffffffffffffffffffffffffffffffffffff167fc140221f88f5c920f7e5b1232c4ab087c5cef4c5c800a780b652506cdbf0a73785858560405161491a9392919061579e565b60405180910390a35050505061492e613c18565b505050565b5f60055f8473ffffffffffffffffffffffffffffffffffffffff1673ffffffffffffffffffffffffffffffffffffffff1681526020019081526020015f205f8373ffffffffffffffffffffffffffffffffffffffff1673ffffffffffffffffffffffffffffffffffffffff1681526020019081526020015f2090505f8160010154146149eb576040517f26afeade00000000000000000000000000000000000000000000000000000000815260040160405180910390fd5b806003015460095f8473ffffffffffffffffffffffffffffffffffffffff1673ffffffffffffffffffffffffffffffffffffffff1681526020019081526020015f205f828254614a3b91906151dd565b925050819055508060030154600b5f8573ffffffffffffffffffffffffffffffffffffffff1673ffffffffffffffffffffffffffffffffffffffff1681526020019081526020015f205f8473ffffffffffffffffffffffffffffffffffffffff1673ffffffffffffffffffffffffffffffffffffffff1681526020019081526020015f205f828254614acd9190615148565b925050819055508060030154600a5f8573ffffffffffffffffffffffffffffffffffffffff1673ffffffffffffffffffffffffffffffffffffffff1681526020019081526020015f205f8473ffffffffffffffffffffffffffffffffffffffff1673ffffffffffffffffffffffffffffffffffffffff1681526020019081526020015f205f828254614b5f91906151dd565b92505081905550505050565b614b8281614b7a614b85614ba4565b63ffffffff16565b50565b5f6a636f6e736f6c652e6c6f6790505f80835160208501845afa505050565b614c47819050919050565b604051806101e001604052805f73ffffffffffffffffffffffffffffffffffffffff1681526020015f81526020015f81526020015f81526020015f81526020015f73ffffffffffffffffffffffffffffffffffffffff1681526020015f81526020015f81526020015f81526020015f81526020015f81526020015f81526020015f81526020015f60ff1681526020015f151581525090565b614c4f615a65565b565b5f80fd5b5f80fd5b5f73ffffffffffffffffffffffffffffffffffffffff82169050919050565b5f614c8282614c59565b9050919050565b614c9281614c78565b8114614c9c575f80fd5b50565b5f81359050614cad81614c89565b92915050565b5f60208284031215614cc857614cc7614c51565b5b5f614cd584828501614c9f565b91505092915050565b5f819050919050565b614cf081614cde565b82525050565b5f602082019050614d095f830184614ce7565b92915050565b5f8060408385031215614d2557614d24614c51565b5b5f614d3285828601614c9f565b9250506020614d4385828601614c9f565b9150509250929050565b614d5681614c78565b82525050565b614d6581614cde565b82525050565b5f60ff82169050919050565b614d8081614d6b565b82525050565b5f8115159050919050565b614d9a81614d86565b82525050565b6101e082015f820151614db55f850182614d4d565b506020820151614dc86020850182614d5c565b506040820151614ddb6040850182614d5c565b506060820151614dee6060850182614d5c565b506080820151614e016080850182614d5c565b5060a0820151614e1460a0850182614d4d565b5060c0820151614e2760c0850182614d5c565b5060e0820151614e3a60e0850182614d5c565b50610100820151614e4f610100850182614d5c565b50610120820151614e64610120850182614d5c565b50610140820151614e79610140850182614d5c565b50610160820151614e8e610160850182614d5c565b50610180820151614ea3610180850182614d5c565b506101a0820151614eb86101a0850182614d77565b506101c0820151614ecd6101c0850182614d91565b50505050565b5f6101e082019050614ee75f830184614da0565b92915050565b614ef681614c78565b82525050565b5f602082019050614f0f5f830184614eed565b92915050565b614f1e81614cde565b8114614f28575f80fd5b50565b5f81359050614f3981614f15565b92915050565b5f8060408385031215614f5557614f54614c51565b5b5f614f6285828601614c9f565b9250506020614f7385828601614f2b565b9150509250929050565b5f60208284031215614f9257614f91614c51565b5b5f614f9f84828501614f2b565b91505092915050565b5f80fd5b5f80fd5b5f80fd5b5f8083601f840112614fc957614fc8614fa8565b5b8235905067ffffffffffffffff811115614fe657614fe5614fac565b5b60208301915083600182028301111561500257615001614fb0565b5b9250929050565b5f806020838503121561501f5761501e614c51565b5b5f83013567ffffffffffffffff81111561503c5761503b614c55565b5b61504885828601614fb4565b92509250509250929050565b61505d81614d86565b82525050565b5f81519050919050565b5f82825260208201905092915050565b5f5b8381101561509a57808201518184015260208101905061507f565b5f8484015250505050565b5f601f19601f8301169050919050565b5f6150bf82615063565b6150c9818561506d565b93506150d981856020860161507d565b6150e2816150a5565b840191505092915050565b5f6040820190506151005f830185615054565b818103602083015261511281846150b5565b90509392505050565b7f4e487b71000000000000000000000000000000000000000000000000000000005f52601160045260245ffd5b5f61515282614cde565b915061515d83614cde565b92508282039050818111156151755761517461511b565b5b92915050565b5f60608201905061518e5f830186614eed565b61519b6020830185614eed565b6151a86040830184614ce7565b949350505050565b7f4e487b71000000000000000000000000000000000000000000000000000000005f52603260045260245ffd5b5f6151e782614cde565b91506151f283614cde565b925082820190508082111561520a5761520961511b565b5b92915050565b5f8151905061521e81614f15565b92915050565b5f6020828403121561523957615238614c51565b5b5f61524684828501615210565b91505092915050565b5f61525982614cde565b915061526483614cde565b925082820261527281614cde565b915082820484148315176152895761528861511b565b5b5092915050565b7f4e487b71000000000000000000000000000000000000000000000000000000005f52601260045260245ffd5b5f6152c782614cde565b91506152d283614cde565b9250826152e2576152e1615290565b5b828204905092915050565b5f6040820190506153005f830185614ce7565b61530d6020830184614ce7565b9392505050565b5f6040820190506153275f830185614eed565b6153346020830184614ce7565b9392505050565b5f815f1c9050919050565b5f73ffffffffffffffffffffffffffffffffffffffff82169050919050565b5f6153776153728361533b565b615346565b9050919050565b61538781614c78565b82525050565b5f615398838361537e565b60208301905092915050565b5f819050919050565b5f6153bf6153ba8361533b565b6153a4565b9050919050565b6153cf81614cde565b82525050565b5f6153e083836153c6565b60208301905092915050565b5f60ff82169050919050565b5f61540a6154058361533b565b6153ec565b9050919050565b61541a81614d6b565b82525050565b5f61542b8383615411565b60208301905092915050565b5f8160081c9050919050565b5f60ff82169050919050565b5f61546161545c83615437565b615443565b9050919050565b61547181614d86565b82525050565b5f6154828383615468565b60208301905092915050565b5f82015f8083015490506154a181615365565b6154ab858261538d565b945050600183015490506154be816153ad565b6154c885826153d5565b945050600283015490506154db816153ad565b6154e585826153d5565b945050600383015490506154f8816153ad565b61550285826153d5565b94505060048301549050615515816153ad565b61551f85826153d5565b9450506005830154905061553281615365565b61553c858261538d565b9450506006830154905061554f816153ad565b61555985826153d5565b9450506007830154905061556c816153ad565b61557685826153d5565b94505060088301549050615589816153ad565b61559385826153d5565b945050600983015490506155a6816153ad565b6155b085826153d5565b945050600a83015490506155c3816153ad565b6155cd85826153d5565b945050600b83015490506155e0816153ad565b6155ea85826153d5565b945050600c83015490506155fd816153ad565b61560785826153d5565b945050600d830154905061561a816153f8565b6156248582615420565b9450506156308161544f565b61563a8582615477565b94505050505050565b5f61564e828461548e565b6101e08201915081905092915050565b5f61566882614c59565b9050919050565b6156788161565e565b8114615682575f80fd5b50565b5f813590506156938161566f565b92915050565b5f80604083850312156156af576156ae614c51565b5b5f6156bc85828601615685565b92505060206156cd85828601615685565b9150509250929050565b5f6156e182614d6b565b915060ff82036156f4576156f361511b565b5b600182019050919050565b5f6040820190506157125f830185614eed565b61571f6020830184614eed565b9392505050565b5f82825260208201905092915050565b7f496e76616c696420626f72726f7720696e6465780000000000000000000000005f82015250565b5f61576a601483615726565b915061577582615736565b602082019050919050565b5f6020820190508181035f8301526157978161575e565b9050919050565b5f6060820190506157b15f830186614ce7565b6157be6020830185614ce7565b6157cb6040830184614ce7565b949350505050565b5f69ffffffffffffffffffff82169050919050565b6157f1816157d3565b81146157fb575f80fd5b50565b5f8151905061580c816157e8565b92915050565b5f819050919050565b61582481615812565b811461582e575f80fd5b50565b5f8151905061583f8161581b565b92915050565b5f805f805f60a0868803121561585e5761585d614c51565b5b5f61586b888289016157fe565b955050602061587c88828901615831565b945050604061588d88828901615210565b935050606061589e88828901615210565b92505060806158af888289016157fe565b9150509295509295909350565b7f496e76616c6964207072696365206665656420646174610000000000000000005f82015250565b5f6158f0601783615726565b91506158fb826158bc565b602082019050919050565b5f6020820190508181035f83015261591d816158e4565b9050919050565b5f81519050919050565b5f61593882615924565b6159428185615726565b935061595281856020860161507d565b61595b816150a5565b840191505092915050565b5f6020820190508181035f83015261597e818461592e565b905092915050565b5f6040820190508181035f83015261599e818561592e565b90506159ad6020830184614eed565b9392505050565b5f6040820190508181035f8301526159cc818561592e565b90506159db6020830184614ce7565b9392505050565b5f6040820190506159f55f830185614ce7565b8181036020830152615a07818461592e565b90509392505050565b615a1981614d86565b8114615a23575f80fd5b50565b5f81519050615a3481615a10565b92915050565b5f60208284031215615a4f57615a4e614c51565b5b5f615a5c84828501615a26565b91505092915050565b7f4e487b71000000000000000000000000000000000000000000000000000000005f52605160045260245ffdfea2646970667358221220a71358d876d3e77cdbd840ff934d0d8ea8b98921a732e313fc905b4510f1713964736f6c63430008180033608060405234801562000010575f80fd5b506040516200151538038062001515833981810160405281019062000036919062000273565b8160015f819055505f73ffffffffffffffffffffffffffffffffffffffff168173ffffffffffffffffffffffffffffffffffffffff1603620000b1575f6040517f1e4fbdf7000000000000000000000000000000000000000000000000000000008152600401620000a89190620002c9565b60405180910390fd5b620000c2816200014b60201b60201c565b508160025f6101000a81548173ffffffffffffffffffffffffffffffffffffffff021916908373ffffffffffffffffffffffffffffffffffffffff1602179055508060035f6101000a81548173ffffffffffffffffffffffffffffffffffffffff021916908373ffffffffffffffffffffffffffffffffffffffff1602179055505050620002e4565b5f60015f9054906101000a900473ffffffffffffffffffffffffffffffffffffffff1690508160015f6101000a81548173ffffffffffffffffffffffffffffffffffffffff021916908373ffffffffffffffffffffffffffffffffffffffff1602179055508173ffffffffffffffffffffffffffffffffffffffff168173ffffffffffffffffffffffffffffffffffffffff167f8be0079c531659141344cd1fd0a4f28419497f9722a3daafe3b4186f6b6457e060405160405180910390a35050565b5f80fd5b5f73ffffffffffffffffffffffffffffffffffffffff82169050919050565b5f6200023d8262000212565b9050919050565b6200024f8162000231565b81146200025a575f80fd5b50565b5f815190506200026d8162000244565b92915050565b5f80604083850312156200028c576200028b6200020e565b5b5f6200029b858286016200025d565b9250506020620002ae858286016200025d565b9150509250929050565b620002c38162000231565b82525050565b5f602082019050620002de5f830184620002b8565b92915050565b61122380620002f25f395ff3fe608060405260043610610085575f3560e01c8063a745f78e11610058578063a745f78e14610119578063cd60f59f14610135578063ddf9f55a1461015d578063f2fde38b14610185578063f970c3b7146101ad57610085565b80633938702f14610089578063502ea3a0146100b1578063715018a6146100d95780638da5cb5b146100ef575b5f80fd5b348015610094575f80fd5b506100af60048036038101906100aa9190610f1d565b6101c9565b005b3480156100bc575f80fd5b506100d760048036038101906100d29190610f1d565b6103d3565b005b3480156100e4575f80fd5b506100ed610559565b005b3480156100fa575f80fd5b5061010361056c565b6040516101109190610f6a565b60405180910390f35b610133600480360381019061012e9190610f83565b610594565b005b348015610140575f80fd5b5061015b60048036038101906101569190610f83565b6106a9565b005b348015610168575f80fd5b50610183600480360381019061017e9190610f83565b6107bc565b005b348015610190575f80fd5b506101ab60048036038101906101a69190610fd3565b6108cf565b005b6101c760048036038101906101c29190610f83565b610953565b005b6101d1610a68565b60025f9054906101000a900473ffffffffffffffffffffffffffffffffffffffff1673ffffffffffffffffffffffffffffffffffffffff163373ffffffffffffffffffffffffffffffffffffffff1614610257576040517f81f2d1d700000000000000000000000000000000000000000000000000000000815260040160405180910390fd5b60011515600360149054906101000a900460ff161515036102a4576040517f70a39ca700000000000000000000000000000000000000000000000000000000815260040160405180910390fd5b61037b6040518060400160405280601281526020017f616d6f756e7420737461626c6520636f696e000000000000000000000000000081525060035f9054906101000a900473ffffffffffffffffffffffffffffffffffffffff1673ffffffffffffffffffffffffffffffffffffffff166370a08231306040518263ffffffff1660e01b81526004016103379190610f6a565b602060405180830381865afa158015610352573d5f803e3d5ffd5b505050506040513d601f19601f820116820180604052508101906103769190611012565b610aac565b6103c7828260035f9054906101000a900473ffffffffffffffffffffffffffffffffffffffff1673ffffffffffffffffffffffffffffffffffffffff16610b489092919063ffffffff16565b6103cf610bc7565b5050565b6103db610a68565b60025f9054906101000a900473ffffffffffffffffffffffffffffffffffffffff1673ffffffffffffffffffffffffffffffffffffffff163373ffffffffffffffffffffffffffffffffffffffff1614610461576040517f81f2d1d700000000000000000000000000000000000000000000000000000000815260040160405180910390fd5b60011515600360149054906101000a900460ff161515036104ae576040517f70a39ca700000000000000000000000000000000000000000000000000000000815260040160405180910390fd5b60035f9054906101000a900473ffffffffffffffffffffffffffffffffffffffff1673ffffffffffffffffffffffffffffffffffffffff166323b872dd8330846040518463ffffffff1660e01b815260040161050c9392919061104c565b6020604051808303815f875af1158015610528573d5f803e3d5ffd5b505050506040513d601f19601f8201168201806040525081019061054c91906110b6565b50610555610bc7565b5050565b610561610bd0565b61056a5f610c57565b565b5f60015f9054906101000a900473ffffffffffffffffffffffffffffffffffffffff16905090565b61059c610a68565b60025f9054906101000a900473ffffffffffffffffffffffffffffffffffffffff1673ffffffffffffffffffffffffffffffffffffffff163373ffffffffffffffffffffffffffffffffffffffff1614610622576040517f81f2d1d700000000000000000000000000000000000000000000000000000000815260040160405180910390fd5b60011515600360149054906101000a900460ff1615150361066f576040517f70a39ca700000000000000000000000000000000000000000000000000000000815260040160405180910390fd5b61069c8330838573ffffffffffffffffffffffffffffffffffffffff16610d1a909392919063ffffffff16565b6106a4610bc7565b505050565b6106b1610a68565b60025f9054906101000a900473ffffffffffffffffffffffffffffffffffffffff1673ffffffffffffffffffffffffffffffffffffffff163373ffffffffffffffffffffffffffffffffffffffff1614610737576040517f81f2d1d700000000000000000000000000000000000000000000000000000000815260040160405180910390fd5b60011515600360149054906101000a900460ff16151503610784576040517f70a39ca700000000000000000000000000000000000000000000000000000000815260040160405180910390fd5b6107af83828473ffffffffffffffffffffffffffffffffffffffff16610b489092919063ffffffff16565b6107b7610bc7565b505050565b6107c4610a68565b60025f9054906101000a900473ffffffffffffffffffffffffffffffffffffffff1673ffffffffffffffffffffffffffffffffffffffff163373ffffffffffffffffffffffffffffffffffffffff161461084a576040517f81f2d1d700000000000000000000000000000000000000000000000000000000815260040160405180910390fd5b60011515600360149054906101000a900460ff16151503610897576040517f70a39ca700000000000000000000000000000000000000000000000000000000815260040160405180910390fd5b6108c283828473ffffffffffffffffffffffffffffffffffffffff16610b489092919063ffffffff16565b6108ca610bc7565b505050565b6108d7610bd0565b5f73ffffffffffffffffffffffffffffffffffffffff168173ffffffffffffffffffffffffffffffffffffffff1603610947575f6040517f1e4fbdf700000000000000000000000000000000000000000000000000000000815260040161093e9190610f6a565b60405180910390fd5b61095081610c57565b50565b61095b610a68565b60025f9054906101000a900473ffffffffffffffffffffffffffffffffffffffff1673ffffffffffffffffffffffffffffffffffffffff163373ffffffffffffffffffffffffffffffffffffffff16146109e1576040517f81f2d1d700000000000000000000000000000000000000000000000000000000815260040160405180910390fd5b60011515600360149054906101000a900460ff16151503610a2e576040517f70a39ca700000000000000000000000000000000000000000000000000000000815260040160405180910390fd5b610a5b8330838573ffffffffffffffffffffffffffffffffffffffff16610d1a909392919063ffffffff16565b610a63610bc7565b505050565b60025f5403610aa3576040517f3ee5aeb500000000000000000000000000000000000000000000000000000000815260040160405180910390fd5b60025f81905550565b610b448282604051602401610ac292919061116b565b6040516020818303038152906040527fb60e72cc000000000000000000000000000000000000000000000000000000007bffffffffffffffffffffffffffffffffffffffffffffffffffffffff19166020820180517bffffffffffffffffffffffffffffffffffffffffffffffffffffffff8381831617835250505050610d9c565b5050565b610bc2838473ffffffffffffffffffffffffffffffffffffffff1663a9059cbb8585604051602401610b7b929190611199565b604051602081830303815290604052915060e01b6020820180517bffffffffffffffffffffffffffffffffffffffffffffffffffffffff8381831617835250505050610db6565b505050565b60015f81905550565b610bd8610e51565b73ffffffffffffffffffffffffffffffffffffffff16610bf661056c565b73ffffffffffffffffffffffffffffffffffffffff1614610c5557610c19610e51565b6040517f118cdaa7000000000000000000000000000000000000000000000000000000008152600401610c4c9190610f6a565b60405180910390fd5b565b5f60015f9054906101000a900473ffffffffffffffffffffffffffffffffffffffff1690508160015f6101000a81548173ffffffffffffffffffffffffffffffffffffffff021916908373ffffffffffffffffffffffffffffffffffffffff1602179055508173ffffffffffffffffffffffffffffffffffffffff168173ffffffffffffffffffffffffffffffffffffffff167f8be0079c531659141344cd1fd0a4f28419497f9722a3daafe3b4186f6b6457e060405160405180910390a35050565b610d96848573ffffffffffffffffffffffffffffffffffffffff166323b872dd868686604051602401610d4f9392919061104c565b604051602081830303815290604052915060e01b6020820180517bffffffffffffffffffffffffffffffffffffffffffffffffffffffff8381831617835250505050610db6565b50505050565b610db381610dab610e58610e77565b63ffffffff16565b50565b5f8060205f8451602086015f885af180610dd5576040513d5f823e3d81fd5b3d92505f519150505f8214610dee576001811415610e09565b5f8473ffffffffffffffffffffffffffffffffffffffff163b145b15610e4b57836040517f5274afe7000000000000000000000000000000000000000000000000000000008152600401610e429190610f6a565b60405180910390fd5b50505050565b5f33905090565b5f6a636f6e736f6c652e6c6f6790505f80835160208501845afa505050565b610e82819050919050565b610e8a6111c0565b565b5f80fd5b5f73ffffffffffffffffffffffffffffffffffffffff82169050919050565b5f610eb982610e90565b9050919050565b610ec981610eaf565b8114610ed3575f80fd5b50565b5f81359050610ee481610ec0565b92915050565b5f819050919050565b610efc81610eea565b8114610f06575f80fd5b50565b5f81359050610f1781610ef3565b92915050565b5f8060408385031215610f3357610f32610e8c565b5b5f610f4085828601610ed6565b9250506020610f5185828601610f09565b9150509250929050565b610f6481610eaf565b82525050565b5f602082019050610f7d5f830184610f5b565b92915050565b5f805f60608486031215610f9a57610f99610e8c565b5b5f610fa786828701610ed6565b9350506020610fb886828701610ed6565b9250506040610fc986828701610f09565b9150509250925092565b5f60208284031215610fe857610fe7610e8c565b5b5f610ff584828501610ed6565b91505092915050565b5f8151905061100c81610ef3565b92915050565b5f6020828403121561102757611026610e8c565b5b5f61103484828501610ffe565b91505092915050565b61104681610eea565b82525050565b5f60608201905061105f5f830186610f5b565b61106c6020830185610f5b565b611079604083018461103d565b949350505050565b5f8115159050919050565b61109581611081565b811461109f575f80fd5b50565b5f815190506110b08161108c565b92915050565b5f602082840312156110cb576110ca610e8c565b5b5f6110d8848285016110a2565b91505092915050565b5f81519050919050565b5f82825260208201905092915050565b5f5b838110156111185780820151818401526020810190506110fd565b5f8484015250505050565b5f601f19601f8301169050919050565b5f61113d826110e1565b61114781856110eb565b93506111578185602086016110fb565b61116081611123565b840191505092915050565b5f6040820190508181035f8301526111838185611133565b9050611192602083018461103d565b9392505050565b5f6040820190506111ac5f830185610f5b565b6111b9602083018461103d565b9392505050565b7f4e487b71000000000000000000000000000000000000000000000000000000005f52605160045260245ffdfea2646970667358221220d2f1a04dc44f9e5efae4b6b5547653318bff7b7556a9940d0e5884df9d66904d64736f6c63430008180033",
        "linkReferences": {}
    },
    "methodIdentifiers": {
        "LTV()": "62965d8e",
        "PRECISION()": "aaf5eb68",
        "borrowLoan(address,uint256)": "456db947",
        "burn(uint256)": "42966c68",
        "checkUpkeep(bytes)": "6e04ff0d",
        "depositCollateral(address,uint256)": "a5d5db0c",
        "depositLiquidity(address,uint256)": "39b41b4a",
        "getBorrowerIndex(address)": "dc12ac0d",
        "getCollateralDetailsOfUser(address)": "419e3173",
        "getCollateralPerToken(address)": "be8d2d23",
        "getInterestRateModelAddress()": "2fb89342",
        "getLoanDetails(address,address)": "2301977c",
        "getLpTokenAddress()": "8c237c69",
        "getPriceFeedAddress(address)": "b21eb1e6",
        "getTokenAmountFromUsd(address,uint256)": "afea2e48",
        "getTotalBorrowedForAToken(address)": "763704ab",
        "getTotalLiquidity()": "35c7e925",
        "getTotalLiquidityPerToken(address)": "15b68d7e",
        "getUsdValue(address,uint256)": "c660d112",
        "getUserBalance(address,address)": "6805d6ad",
        "getValueOfLpToken()": "5e6e6da2",
        "getVaultAddress()": "65cacaa4",
        "interestRateModelAddress()": "a429fea2",
        "performUpkeep(bytes)": "4585e33b",
        "repayLoan(address,uint256)": "93a595f5",
        "s_borrowerIndex(address)": "c5e82ffd",
        "s_lastAccuralTime(address)": "92ed0cef",
        "s_tokenAddressesList(uint256)": "ffc4c909",
        "totalAmountRepaid()": "527f6599",
        "totalBorrowed()": "4c19386c",
        "withdrawCollateral(address,uint256)": "350c35e9",
        "withdrawDeposit(address,uint256)": "7f07bfdc"
    },
    "id": 34
}