{
    "abi": [
        {
            "type": "constructor",
            "inputs": [
                {
                    "name": "tokenAddresses",
                    "type": "address[]",
                    "internalType": "address[]"
                },
                {
                    "name": "priceFeedAddresses",
                    "type": "address[]",
                    "internalType": "address[]"
                },
                {
                    "name": "stableCoinAddress",
                    "type": "address",
                    "internalType": "address"
                },
                {
                    "name": "lpTokenAddress",
                    "type": "address",
                    "internalType": "address"
                },
                {
                    "name": "interestRateModelAddress_",
                    "type": "address",
                    "internalType": "address"
                }
            ],
            "stateMutability": "nonpayable"
        },
        {
            "type": "function",
            "name": "LTV",
            "inputs": [],
            "outputs": [
                {
                    "name": "",
                    "type": "uint256",
                    "internalType": "uint256"
                }
            ],
            "stateMutability": "view"
        },
        {
            "type": "function",
            "name": "PRECISION",
            "inputs": [],
            "outputs": [
                {
                    "name": "",
                    "type": "uint256",
                    "internalType": "uint256"
                }
            ],
            "stateMutability": "view"
        },
        {
            "type": "function",
            "name": "borrowLoan",
            "inputs": [
                {
                    "name": "token",
                    "type": "address",
                    "internalType": "address"
                },
                {
                    "name": "amount",
                    "type": "uint256",
                    "internalType": "uint256"
                }
            ],
            "outputs": [],
            "stateMutability": "nonpayable"
        },
        {
            "type": "function",
            "name": "burn",
            "inputs": [
                {
                    "name": "amount",
                    "type": "uint256",
                    "internalType": "uint256"
                }
            ],
            "outputs": [],
            "stateMutability": "nonpayable"
        },
        {
            "type": "function",
            "name": "checkUpkeep",
            "inputs": [
                {
                    "name": "",
                    "type": "bytes",
                    "internalType": "bytes"
                }
            ],
            "outputs": [
                {
                    "name": "upkeepNeeded",
                    "type": "bool",
                    "internalType": "bool"
                },
                {
                    "name": "performData",
                    "type": "bytes",
                    "internalType": "bytes"
                }
            ],
            "stateMutability": "view"
        },
        {
            "type": "function",
            "name": "depositCollateral",
            "inputs": [
                {
                    "name": "token",
                    "type": "address",
                    "internalType": "address"
                },
                {
                    "name": "amount",
                    "type": "uint256",
                    "internalType": "uint256"
                }
            ],
            "outputs": [],
            "stateMutability": "payable"
        },
        {
            "type": "function",
            "name": "depositLiquidity",
            "inputs": [
                {
                    "name": "token",
                    "type": "address",
                    "internalType": "address"
                },
                {
                    "name": "amount",
                    "type": "uint256",
                    "internalType": "uint256"
                }
            ],
            "outputs": [],
            "stateMutability": "nonpayable"
        },
        {
            "type": "function",
            "name": "getBorrowAPY",
            "inputs": [
                {
                    "name": "token",
                    "type": "address",
                    "internalType": "address"
                }
            ],
            "outputs": [
                {
                    "name": "",
                    "type": "uint256",
                    "internalType": "uint256"
                }
            ],
            "stateMutability": "view"
        },
        {
            "type": "function",
            "name": "getBorrowerIndex",
            "inputs": [
                {
                    "name": "token",
                    "type": "address",
                    "internalType": "address"
                }
            ],
            "outputs": [
                {
                    "name": "",
                    "type": "uint256",
                    "internalType": "uint256"
                }
            ],
            "stateMutability": "view"
        },
        {
            "type": "function",
            "name": "getCollateralDetailsOfUser",
            "inputs": [
                {
                    "name": "token",
                    "type": "address",
                    "internalType": "address"
                }
            ],
            "outputs": [
                {
                    "name": "",
                    "type": "uint256",
                    "internalType": "uint256"
                }
            ],
            "stateMutability": "view"
        },
        {
            "type": "function",
            "name": "getCollateralPerToken",
            "inputs": [
                {
                    "name": "token",
                    "type": "address",
                    "internalType": "address"
                }
            ],
            "outputs": [
                {
                    "name": "",
                    "type": "uint256",
                    "internalType": "uint256"
                }
            ],
            "stateMutability": "view"
        },
        {
            "type": "function",
            "name": "getInterestRateModelAddress",
            "inputs": [],
            "outputs": [
                {
                    "name": "",
                    "type": "address",
                    "internalType": "address"
                }
            ],
            "stateMutability": "view"
        },
        {
            "type": "function",
            "name": "getLoanDetails",
            "inputs": [
                {
                    "name": "user",
                    "type": "address",
                    "internalType": "address"
                },
                {
                    "name": "token",
                    "type": "address",
                    "internalType": "address"
                }
            ],
            "outputs": [
                {
                    "name": "",
                    "type": "tuple",
                    "internalType": "struct LendingPoolContract.LoanDetails",
                    "components": [
                        {
                            "name": "token",
                            "type": "address",
                            "internalType": "address"
                        },
                        {
                            "name": "amountBorrowedInUSDT",
                            "type": "uint256",
                            "internalType": "uint256"
                        },
                        {
                            "name": "principalAmount",
                            "type": "uint256",
                            "internalType": "uint256"
                        },
                        {
                            "name": "collateralUsed",
                            "type": "uint256",
                            "internalType": "uint256"
                        },
                        {
                            "name": "lastUpdate",
                            "type": "uint256",
                            "internalType": "uint256"
                        },
                        {
                            "name": "asset",
                            "type": "address",
                            "internalType": "address"
                        },
                        {
                            "name": "userBorrowIndex",
                            "type": "uint256",
                            "internalType": "uint256"
                        },
                        {
                            "name": "interestPaid",
                            "type": "uint256",
                            "internalType": "uint256"
                        },
                        {
                            "name": "liquidationPoint",
                            "type": "uint256",
                            "internalType": "uint256"
                        },
                        {
                            "name": "amountBorrowedInToken",
                            "type": "uint256",
                            "internalType": "uint256"
                        },
                        {
                            "name": "pendingInterest",
                            "type": "uint256",
                            "internalType": "uint256"
                        },
                        {
                            "name": "principalToRepay",
                            "type": "uint256",
                            "internalType": "uint256"
                        },
                        {
                            "name": "dueDate",
                            "type": "uint256",
                            "internalType": "uint256"
                        },
                        {
                            "name": "penaltyCount",
                            "type": "uint8",
                            "internalType": "uint8"
                        },
                        {
                            "name": "isLiquidated",
                            "type": "bool",
                            "internalType": "bool"
                        }
                    ]
                }
            ],
            "stateMutability": "view"
        },
        {
            "type": "function",
            "name": "getLockedCollateralDetails",
            "inputs": [
                {
                    "name": "tokenAddress",
                    "type": "address",
                    "internalType": "address"
                }
            ],
            "outputs": [
                {
                    "name": "",
                    "type": "uint256",
                    "internalType": "uint256"
                }
            ],
            "stateMutability": "view"
        },
        {
            "type": "function",
            "name": "getLpTokenAddress",
            "inputs": [],
            "outputs": [
                {
                    "name": "",
                    "type": "address",
                    "internalType": "address"
                }
            ],
            "stateMutability": "view"
        },
        {
            "type": "function",
            "name": "getPriceFeedAddress",
            "inputs": [
                {
                    "name": "token",
                    "type": "address",
                    "internalType": "address"
                }
            ],
            "outputs": [
                {
                    "name": "",
                    "type": "address",
                    "internalType": "address"
                }
            ],
            "stateMutability": "view"
        },
        {
            "type": "function",
            "name": "getSupplyAPY",
            "inputs": [
                {
                    "name": "token",
                    "type": "address",
                    "internalType": "address"
                }
            ],
            "outputs": [
                {
                    "name": "",
                    "type": "uint256",
                    "internalType": "uint256"
                }
            ],
            "stateMutability": "view"
        },
        {
            "type": "function",
            "name": "getTokenAmountFromUsd",
            "inputs": [
                {
                    "name": "token",
                    "type": "address",
                    "internalType": "address"
                },
                {
                    "name": "usdValue",
                    "type": "uint256",
                    "internalType": "uint256"
                }
            ],
            "outputs": [
                {
                    "name": "",
                    "type": "uint256",
                    "internalType": "uint256"
                }
            ],
            "stateMutability": "view"
        },
        {
            "type": "function",
            "name": "getTotalBorrowedForAToken",
            "inputs": [
                {
                    "name": "token",
                    "type": "address",
                    "internalType": "address"
                }
            ],
            "outputs": [
                {
                    "name": "",
                    "type": "uint256",
                    "internalType": "uint256"
                }
            ],
            "stateMutability": "view"
        },
        {
            "type": "function",
            "name": "getTotalLiquidity",
            "inputs": [],
            "outputs": [
                {
                    "name": "",
                    "type": "uint256",
                    "internalType": "uint256"
                }
            ],
            "stateMutability": "view"
        },
        {
            "type": "function",
            "name": "getTotalLiquidityPerToken",
            "inputs": [
                {
                    "name": "token",
                    "type": "address",
                    "internalType": "address"
                }
            ],
            "outputs": [
                {
                    "name": "",
                    "type": "uint256",
                    "internalType": "uint256"
                }
            ],
            "stateMutability": "view"
        },
        {
            "type": "function",
            "name": "getTotalLiquidityPerTokenV2",
            "inputs": [
                {
                    "name": "token",
                    "type": "address",
                    "internalType": "address"
                }
            ],
            "outputs": [
                {
                    "name": "",
                    "type": "uint256",
                    "internalType": "uint256"
                }
            ],
            "stateMutability": "view"
        },
        {
            "type": "function",
            "name": "getTotalSupplyPerToken",
            "inputs": [
                {
                    "name": "token",
                    "type": "address",
                    "internalType": "address"
                }
            ],
            "outputs": [
                {
                    "name": "",
                    "type": "uint256",
                    "internalType": "uint256"
                }
            ],
            "stateMutability": "view"
        },
        {
            "type": "function",
            "name": "getUsdValue",
            "inputs": [
                {
                    "name": "token",
                    "type": "address",
                    "internalType": "address"
                },
                {
                    "name": "amount",
                    "type": "uint256",
                    "internalType": "uint256"
                }
            ],
            "outputs": [
                {
                    "name": "",
                    "type": "uint256",
                    "internalType": "uint256"
                }
            ],
            "stateMutability": "view"
        },
        {
            "type": "function",
            "name": "getUserBalance",
            "inputs": [
                {
                    "name": "user",
                    "type": "address",
                    "internalType": "address"
                },
                {
                    "name": "token",
                    "type": "address",
                    "internalType": "address"
                }
            ],
            "outputs": [
                {
                    "name": "",
                    "type": "uint256",
                    "internalType": "uint256"
                }
            ],
            "stateMutability": "view"
        },
        {
            "type": "function",
            "name": "getValueOfLpToken",
            "inputs": [],
            "outputs": [
                {
                    "name": "valueOflpToken",
                    "type": "uint256",
                    "internalType": "uint256"
                }
            ],
            "stateMutability": "view"
        },
        {
            "type": "function",
            "name": "getVaultAddress",
            "inputs": [],
            "outputs": [
                {
                    "name": "",
                    "type": "address",
                    "internalType": "address"
                }
            ],
            "stateMutability": "view"
        },
        {
            "type": "function",
            "name": "interestRateModelAddress",
            "inputs": [],
            "outputs": [
                {
                    "name": "",
                    "type": "address",
                    "internalType": "address"
                }
            ],
            "stateMutability": "view"
        },
        {
            "type": "function",
            "name": "performUpkeep",
            "inputs": [
                {
                    "name": "performData",
                    "type": "bytes",
                    "internalType": "bytes"
                }
            ],
            "outputs": [],
            "stateMutability": "nonpayable"
        },
        {
            "type": "function",
            "name": "repayLoan",
            "inputs": [
                {
                    "name": "token",
                    "type": "address",
                    "internalType": "address"
                },
                {
                    "name": "amount",
                    "type": "uint256",
                    "internalType": "uint256"
                }
            ],
            "outputs": [],
            "stateMutability": "nonpayable"
        },
        {
            "type": "function",
            "name": "s_borrowerIndex",
            "inputs": [
                {
                    "name": "token",
                    "type": "address",
                    "internalType": "address"
                }
            ],
            "outputs": [
                {
                    "name": "borrowerIndexOfToken",
                    "type": "uint256",
                    "internalType": "uint256"
                }
            ],
            "stateMutability": "view"
        },
        {
            "type": "function",
            "name": "s_lastAccuralTime",
            "inputs": [
                {
                    "name": "token",
                    "type": "address",
                    "internalType": "address"
                }
            ],
            "outputs": [
                {
                    "name": "",
                    "type": "uint256",
                    "internalType": "uint256"
                }
            ],
            "stateMutability": "view"
        },
        {
            "type": "function",
            "name": "s_tokenAddressesList",
            "inputs": [
                {
                    "name": "",
                    "type": "uint256",
                    "internalType": "uint256"
                }
            ],
            "outputs": [
                {
                    "name": "",
                    "type": "address",
                    "internalType": "address"
                }
            ],
            "stateMutability": "view"
        },
        {
            "type": "function",
            "name": "totalAmountRepaid",
            "inputs": [],
            "outputs": [
                {
                    "name": "",
                    "type": "uint256",
                    "internalType": "uint256"
                }
            ],
            "stateMutability": "view"
        },
        {
            "type": "function",
            "name": "totalBorrowed",
            "inputs": [],
            "outputs": [
                {
                    "name": "",
                    "type": "uint256",
                    "internalType": "uint256"
                }
            ],
            "stateMutability": "view"
        },
        {
            "type": "function",
            "name": "totalCollateralProvided",
            "inputs": [],
            "outputs": [
                {
                    "name": "",
                    "type": "uint256",
                    "internalType": "uint256"
                }
            ],
            "stateMutability": "view"
        },
        {
            "type": "function",
            "name": "totalSupplied",
            "inputs": [],
            "outputs": [
                {
                    "name": "",
                    "type": "uint256",
                    "internalType": "uint256"
                }
            ],
            "stateMutability": "view"
        },
        {
            "type": "function",
            "name": "withdrawCollateral",
            "inputs": [
                {
                    "name": "token",
                    "type": "address",
                    "internalType": "address"
                },
                {
                    "name": "amount",
                    "type": "uint256",
                    "internalType": "uint256"
                }
            ],
            "outputs": [],
            "stateMutability": "nonpayable"
        },
        {
            "type": "function",
            "name": "withdrawDeposit",
            "inputs": [
                {
                    "name": "token",
                    "type": "address",
                    "internalType": "address"
                },
                {
                    "name": "amount",
                    "type": "uint256",
                    "internalType": "uint256"
                }
            ],
            "outputs": [],
            "stateMutability": "nonpayable"
        },
        {
            "type": "event",
            "name": "CollateralDeposited",
            "inputs": [
                {
                    "name": "user",
                    "type": "address",
                    "indexed": true,
                    "internalType": "address"
                },
                {
                    "name": "tokenAddress",
                    "type": "address",
                    "indexed": true,
                    "internalType": "address"
                },
                {
                    "name": "amountOfCollaterlDeposited",
                    "type": "uint256",
                    "indexed": false,
                    "internalType": "uint256"
                }
            ],
            "anonymous": false
        },
        {
            "type": "event",
            "name": "CollateralReleased",
            "inputs": [
                {
                    "name": "user",
                    "type": "address",
                    "indexed": true,
                    "internalType": "address"
                },
                {
                    "name": "token",
                    "type": "address",
                    "indexed": true,
                    "internalType": "address"
                },
                {
                    "name": "amount",
                    "type": "uint256",
                    "indexed": false,
                    "internalType": "uint256"
                }
            ],
            "anonymous": false
        },
        {
            "type": "event",
            "name": "CollateralWithdrawed",
            "inputs": [
                {
                    "name": "user",
                    "type": "address",
                    "indexed": true,
                    "internalType": "address"
                },
                {
                    "name": "token",
                    "type": "address",
                    "indexed": true,
                    "internalType": "address"
                },
                {
                    "name": "amount",
                    "type": "uint256",
                    "indexed": false,
                    "internalType": "uint256"
                }
            ],
            "anonymous": false
        },
        {
            "type": "event",
            "name": "DepositWithdrawn",
            "inputs": [
                {
                    "name": "user",
                    "type": "address",
                    "indexed": true,
                    "internalType": "address"
                },
                {
                    "name": "tokenAddress",
                    "type": "address",
                    "indexed": true,
                    "internalType": "address"
                },
                {
                    "name": "amount",
                    "type": "uint256",
                    "indexed": false,
                    "internalType": "uint256"
                }
            ],
            "anonymous": false
        },
        {
            "type": "event",
            "name": "LiquidityDeposited",
            "inputs": [
                {
                    "name": "user",
                    "type": "address",
                    "indexed": true,
                    "internalType": "address"
                },
                {
                    "name": "tokenAddress",
                    "type": "address",
                    "indexed": true,
                    "internalType": "address"
                },
                {
                    "name": "amountDeposited",
                    "type": "uint256",
                    "indexed": false,
                    "internalType": "uint256"
                },
                {
                    "name": "lpTokenMinted",
                    "type": "uint256",
                    "indexed": false,
                    "internalType": "uint256"
                }
            ],
            "anonymous": false
        },
        {
            "type": "event",
            "name": "LoanBorrowed",
            "inputs": [
                {
                    "name": "user",
                    "type": "address",
                    "indexed": true,
                    "internalType": "address"
                },
                {
                    "name": "token",
                    "type": "address",
                    "indexed": true,
                    "internalType": "address"
                },
                {
                    "name": "loadnDetails",
                    "type": "tuple",
                    "indexed": false,
                    "internalType": "struct LendingPoolContract.LoanDetails",
                    "components": [
                        {
                            "name": "token",
                            "type": "address",
                            "internalType": "address"
                        },
                        {
                            "name": "amountBorrowedInUSDT",
                            "type": "uint256",
                            "internalType": "uint256"
                        },
                        {
                            "name": "principalAmount",
                            "type": "uint256",
                            "internalType": "uint256"
                        },
                        {
                            "name": "collateralUsed",
                            "type": "uint256",
                            "internalType": "uint256"
                        },
                        {
                            "name": "lastUpdate",
                            "type": "uint256",
                            "internalType": "uint256"
                        },
                        {
                            "name": "asset",
                            "type": "address",
                            "internalType": "address"
                        },
                        {
                            "name": "userBorrowIndex",
                            "type": "uint256",
                            "internalType": "uint256"
                        },
                        {
                            "name": "interestPaid",
                            "type": "uint256",
                            "internalType": "uint256"
                        },
                        {
                            "name": "liquidationPoint",
                            "type": "uint256",
                            "internalType": "uint256"
                        },
                        {
                            "name": "amountBorrowedInToken",
                            "type": "uint256",
                            "internalType": "uint256"
                        },
                        {
                            "name": "pendingInterest",
                            "type": "uint256",
                            "internalType": "uint256"
                        },
                        {
                            "name": "principalToRepay",
                            "type": "uint256",
                            "internalType": "uint256"
                        },
                        {
                            "name": "dueDate",
                            "type": "uint256",
                            "internalType": "uint256"
                        },
                        {
                            "name": "penaltyCount",
                            "type": "uint8",
                            "internalType": "uint8"
                        },
                        {
                            "name": "isLiquidated",
                            "type": "bool",
                            "internalType": "bool"
                        }
                    ]
                },
                {
                    "name": "amount",
                    "type": "uint256",
                    "indexed": false,
                    "internalType": "uint256"
                }
            ],
            "anonymous": false
        },
        {
            "type": "event",
            "name": "LoanLiquidated",
            "inputs": [
                {
                    "name": "user",
                    "type": "address",
                    "indexed": true,
                    "internalType": "address"
                },
                {
                    "name": "token",
                    "type": "address",
                    "indexed": true,
                    "internalType": "address"
                },
                {
                    "name": "loanAmount",
                    "type": "uint256",
                    "indexed": false,
                    "internalType": "uint256"
                },
                {
                    "name": "collateralValue",
                    "type": "uint256",
                    "indexed": false,
                    "internalType": "uint256"
                },
                {
                    "name": "liquidationPenalty",
                    "type": "uint256",
                    "indexed": false,
                    "internalType": "uint256"
                }
            ],
            "anonymous": false
        },
        {
            "type": "event",
            "name": "LoanRepaid",
            "inputs": [
                {
                    "name": "user",
                    "type": "address",
                    "indexed": true,
                    "internalType": "address"
                },
                {
                    "name": "token",
                    "type": "address",
                    "indexed": true,
                    "internalType": "address"
                },
                {
                    "name": "totalAmount",
                    "type": "uint256",
                    "indexed": false,
                    "internalType": "uint256"
                },
                {
                    "name": "interestPaid",
                    "type": "uint256",
                    "indexed": false,
                    "internalType": "uint256"
                },
                {
                    "name": "principalRepaid",
                    "type": "uint256",
                    "indexed": false,
                    "internalType": "uint256"
                }
            ],
            "anonymous": false
        },
        {
            "type": "event",
            "name": "LpTokensBurned",
            "inputs": [
                {
                    "name": "user",
                    "type": "address",
                    "indexed": true,
                    "internalType": "address"
                },
                {
                    "name": "amount",
                    "type": "uint256",
                    "indexed": false,
                    "internalType": "uint256"
                }
            ],
            "anonymous": false
        },
        {
            "type": "error",
            "name": "LendingPoolContract__AmountLessThanMinimumRepaymentAmount",
            "inputs": []
        },
        {
            "type": "error",
            "name": "LendingPoolContract__AmountShouldBeGreaterThanZero",
            "inputs": []
        },
        {
            "type": "error",
            "name": "LendingPoolContract__InsufficentBalance",
            "inputs": [
                {
                    "name": "amount",
                    "type": "uint256",
                    "internalType": "uint256"
                },
                {
                    "name": "availableAmount",
                    "type": "uint256",
                    "internalType": "uint256"
                }
            ]
        },
        {
            "type": "error",
            "name": "LendingPoolContract__InsufficentLpTokenBalance",
            "inputs": [
                {
                    "name": "availableBalance",
                    "type": "uint256",
                    "internalType": "uint256"
                }
            ]
        },
        {
            "type": "error",
            "name": "LendingPoolContract__InvalidRequestAmount",
            "inputs": []
        },
        {
            "type": "error",
            "name": "LendingPoolContract__LoanAmountExceeded",
            "inputs": []
        },
        {
            "type": "error",
            "name": "LendingPoolContract__LoanIsNotActive",
            "inputs": []
        },
        {
            "type": "error",
            "name": "LendingPoolContract__LoanPending",
            "inputs": []
        },
        {
            "type": "error",
            "name": "LendingPoolContract__LoanStillPending",
            "inputs": []
        },
        {
            "type": "error",
            "name": "LendingPoolContract__LpTokenMintFailed",
            "inputs": []
        },
        {
            "type": "error",
            "name": "LendingPoolContract__NotEnoughCollateral",
            "inputs": []
        },
        {
            "type": "error",
            "name": "LendingPoolContract__NotLiquidatable",
            "inputs": []
        },
        {
            "type": "error",
            "name": "LendingPoolContract__TokenAddressAndPriceFeedAddressMismatch",
            "inputs": [
                {
                    "name": "tokenAddressLength",
                    "type": "uint256",
                    "internalType": "uint256"
                },
                {
                    "name": "priceFeedAddressLength",
                    "type": "uint256",
                    "internalType": "uint256"
                }
            ]
        },
        {
            "type": "error",
            "name": "LendingPoolContract__TokenIsNotAllowedToDeposit",
            "inputs": [
                {
                    "name": "token",
                    "type": "address",
                    "internalType": "address"
                }
            ]
        },
        {
            "type": "error",
            "name": "ReentrancyGuardReentrantCall",
            "inputs": []
        }
    ],
    "bytecode": {
        "object": "0x60a060405234801562000010575f80fd5b5060405162007477380380620074778339818101604052810190620000369190620005c1565b60015f8190555083518551146200008a57845184516040517fe94792cc000000000000000000000000000000000000000000000000000000008152600401620000819291906200069d565b60405180910390fd5b5f5b85518110156200029c57670de0b6b3a764000060015f888481518110620000b857620000b7620006c8565b5b602002602001015173ffffffffffffffffffffffffffffffffffffffff1673ffffffffffffffffffffffffffffffffffffffff1681526020019081526020015f20819055504260025f888481518110620001175762000116620006c8565b5b602002602001015173ffffffffffffffffffffffffffffffffffffffff1673ffffffffffffffffffffffffffffffffffffffff1681526020019081526020015f2081905550848181518110620001725762000171620006c8565b5b602002602001015160035f888481518110620001935762000192620006c8565b5b602002602001015173ffffffffffffffffffffffffffffffffffffffff1673ffffffffffffffffffffffffffffffffffffffff1681526020019081526020015f205f6101000a81548173ffffffffffffffffffffffffffffffffffffffff021916908373ffffffffffffffffffffffffffffffffffffffff1602179055506011868281518110620002295762000228620006c8565b5b6020026020010151908060018154018082558091505060019003905f5260205f20015f9091909190916101000a81548173ffffffffffffffffffffffffffffffffffffffff021916908373ffffffffffffffffffffffffffffffffffffffff16021790555080806001019150506200008c565b508060165f6101000a81548173ffffffffffffffffffffffffffffffffffffffff021916908373ffffffffffffffffffffffffffffffffffffffff1602179055508273ffffffffffffffffffffffffffffffffffffffff1660808173ffffffffffffffffffffffffffffffffffffffff16815250508160075f6101000a81548173ffffffffffffffffffffffffffffffffffffffff021916908373ffffffffffffffffffffffffffffffffffffffff160217905550306080516040516200036390620003d5565b6200037092919062000706565b604051809103905ff0801580156200038a573d5f803e3d5ffd5b5060175f6101000a81548173ffffffffffffffffffffffffffffffffffffffff021916908373ffffffffffffffffffffffffffffffffffffffff160217905550505050505062000731565b6115158062005f6283390190565b5f604051905090565b5f80fd5b5f80fd5b5f80fd5b5f601f19601f8301169050919050565b7f4e487b71000000000000000000000000000000000000000000000000000000005f52604160045260245ffd5b6200044082620003f8565b810181811067ffffffffffffffff8211171562000462576200046162000408565b5b80604052505050565b5f62000476620003e3565b905062000484828262000435565b919050565b5f67ffffffffffffffff821115620004a657620004a562000408565b5b602082029050602081019050919050565b5f80fd5b5f73ffffffffffffffffffffffffffffffffffffffff82169050919050565b5f620004e682620004bb565b9050919050565b620004f881620004da565b811462000503575f80fd5b50565b5f815190506200051681620004ed565b92915050565b5f620005326200052c8462000489565b6200046b565b90508083825260208201905060208402830185811115620005585762000557620004b7565b5b835b8181101562000585578062000570888262000506565b8452602084019350506020810190506200055a565b5050509392505050565b5f82601f830112620005a657620005a5620003f4565b5b8151620005b88482602086016200051c565b91505092915050565b5f805f805f60a08688031215620005dd57620005dc620003ec565b5b5f86015167ffffffffffffffff811115620005fd57620005fc620003f0565b5b6200060b888289016200058f565b955050602086015167ffffffffffffffff8111156200062f576200062e620003f0565b5b6200063d888289016200058f565b9450506040620006508882890162000506565b9350506060620006638882890162000506565b9250506080620006768882890162000506565b9150509295509295909350565b5f819050919050565b620006978162000683565b82525050565b5f604082019050620006b25f8301856200068c565b620006c160208301846200068c565b9392505050565b7f4e487b71000000000000000000000000000000000000000000000000000000005f52603260045260245ffd5b6200070081620004da565b82525050565b5f6040820190506200071b5f830185620006f5565b6200072a6020830184620006f5565b9392505050565b6080516158186200074a5f395f6120c601526158185ff3fe60806040526004361061022f575f3560e01c806365cacaa41161012d578063aaf5eb68116100aa578063c5e82ffd1161006e578063c5e82ffd146108a8578063c660d112146108e4578063dc12ac0d14610920578063ea719a331461095c578063ffc4c909146109985761022f565b8063aaf5eb68146107a0578063afea2e48146107ca578063b193347514610806578063b21eb1e614610830578063be8d2d231461086c5761022f565b80638c237c69116100f15780638c237c69146106cc57806392ed0cef146106f657806393a595f514610732578063a429fea21461075a578063a5d5db0c146107845761022f565b806365cacaa4146105c55780636805d6ad146105ef5780636e04ff0d1461062b578063763704ab146106685780637f07bfdc146106a45761022f565b806339b41b4a116101bb5780634c19386c1161017f5780634c19386c146104f3578063527f65991461051d5780635e6e6da21461054757806362965d8e14610571578063630fd0ac1461059b5761022f565b806339b41b4a14610417578063419e31731461043f57806342966c681461047b578063456db947146104a35780634585e33b146104cb5761022f565b8063350c35e911610202578063350c35e91461031157806335c7e9251461033957806335cf5231146103635780633824c2b61461039f5780633842ea42146103db5761022f565b806315b68d7e146102335780632301977c1461026f5780632d27b824146102ab5780632fb89342146102e7575b5f80fd5b34801561023e575f80fd5b5061025960048036038101906102549190614b8f565b6109d4565b6040516102669190614bd2565b60405180910390f35b34801561027a575f80fd5b5061029560048036038101906102909190614beb565b610a1a565b6040516102a29190614daf565b60405180910390f35b3480156102b6575f80fd5b506102d160048036038101906102cc9190614b8f565b610bfc565b6040516102de9190614bd2565b60405180910390f35b3480156102f2575f80fd5b506102fb610c9d565b6040516103089190614dd8565b60405180910390f35b34801561031c575f80fd5b5061033760048036038101906103329190614e1b565b610cc5565b005b348015610344575f80fd5b5061034d611086565b60405161035a9190614bd2565b60405180910390f35b34801561036e575f80fd5b5061038960048036038101906103849190614b8f565b611179565b6040516103969190614bd2565b60405180910390f35b3480156103aa575f80fd5b506103c560048036038101906103c09190614b8f565b6111fa565b6040516103d29190614bd2565b60405180910390f35b3480156103e6575f80fd5b5061040160048036038101906103fc9190614b8f565b611240565b60405161040e9190614bd2565b60405180910390f35b348015610422575f80fd5b5061043d60048036038101906104389190614e1b565b6113c2565b005b34801561044a575f80fd5b5061046560048036038101906104609190614b8f565b6117ce565b6040516104729190614bd2565b60405180910390f35b348015610486575f80fd5b506104a1600480360381019061049c9190614e59565b61184f565b005b3480156104ae575f80fd5b506104c960048036038101906104c49190614e1b565b6119c7565b005b3480156104d6575f80fd5b506104f160048036038101906104ec9190614ee5565b6123e0565b005b3480156104fe575f80fd5b5061050761254b565b6040516105149190614bd2565b60405180910390f35b348015610528575f80fd5b50610531612551565b60405161053e9190614bd2565b60405180910390f35b348015610552575f80fd5b5061055b612557565b6040516105689190614bd2565b60405180910390f35b34801561057c575f80fd5b506105856125fd565b6040516105929190614bd2565b60405180910390f35b3480156105a6575f80fd5b506105af612609565b6040516105bc9190614bd2565b60405180910390f35b3480156105d0575f80fd5b506105d961260f565b6040516105e69190614dd8565b60405180910390f35b3480156105fa575f80fd5b5061061560048036038101906106109190614beb565b612637565b6040516106229190614bd2565b60405180910390f35b348015610636575f80fd5b50610651600480360381019061064c9190614ee5565b6126b9565b60405161065f929190614fc9565b60405180910390f35b348015610673575f80fd5b5061068e60048036038101906106899190614b8f565b61298e565b60405161069b9190614bd2565b60405180910390f35b3480156106af575f80fd5b506106ca60048036038101906106c59190614e1b565b6129d4565b005b3480156106d7575f80fd5b506106e0612da7565b6040516106ed9190614dd8565b60405180910390f35b348015610701575f80fd5b5061071c60048036038101906107179190614b8f565b612dcf565b6040516107299190614bd2565b60405180910390f35b34801561073d575f80fd5b5061075860048036038101906107539190614e1b565b612de4565b005b348015610765575f80fd5b5061076e61361f565b60405161077b9190614dd8565b60405180910390f35b61079e60048036038101906107999190614e1b565b613644565b005b3480156107ab575f80fd5b506107b4613953565b6040516107c19190614bd2565b60405180910390f35b3480156107d5575f80fd5b506107f060048036038101906107eb9190614e1b565b61395f565b6040516107fd9190614bd2565b60405180910390f35b348015610811575f80fd5b5061081a613aaf565b6040516108279190614bd2565b60405180910390f35b34801561083b575f80fd5b5061085660048036038101906108519190614b8f565b613ab5565b6040516108639190614dd8565b60405180910390f35b348015610877575f80fd5b50610892600480360381019061088d9190614b8f565b613b1a565b60405161089f9190614bd2565b60405180910390f35b3480156108b3575f80fd5b506108ce60048036038101906108c99190614b8f565b613b60565b6040516108db9190614bd2565b60405180910390f35b3480156108ef575f80fd5b5061090a60048036038101906109059190614e1b565b613b75565b6040516109179190614bd2565b60405180910390f35b34801561092b575f80fd5b5061094660048036038101906109419190614b8f565b613c83565b6040516109539190614bd2565b60405180910390f35b348015610967575f80fd5b50610982600480360381019061097d9190614b8f565b613cc9565b60405161098f9190614bd2565b60405180910390f35b3480156109a3575f80fd5b506109be60048036038101906109b99190614e59565b613d60565b6040516109cb9190614dd8565b60405180910390f35b5f60085f8373ffffffffffffffffffffffffffffffffffffffff1673ffffffffffffffffffffffffffffffffffffffff1681526020019081526020015f20549050919050565b610a22614a95565b60055f8473ffffffffffffffffffffffffffffffffffffffff1673ffffffffffffffffffffffffffffffffffffffff1681526020019081526020015f205f8373ffffffffffffffffffffffffffffffffffffffff1673ffffffffffffffffffffffffffffffffffffffff1681526020019081526020015f20604051806101e00160405290815f82015f9054906101000a900473ffffffffffffffffffffffffffffffffffffffff1673ffffffffffffffffffffffffffffffffffffffff1673ffffffffffffffffffffffffffffffffffffffff16815260200160018201548152602001600282015481526020016003820154815260200160048201548152602001600582015f9054906101000a900473ffffffffffffffffffffffffffffffffffffffff1673ffffffffffffffffffffffffffffffffffffffff1673ffffffffffffffffffffffffffffffffffffffff16815260200160068201548152602001600782015481526020016008820154815260200160098201548152602001600a8201548152602001600b8201548152602001600c8201548152602001600d82015f9054906101000a900460ff1660ff1660ff168152602001600d820160019054906101000a900460ff161515151581525050905092915050565b5f60165f9054906101000a900473ffffffffffffffffffffffffffffffffffffffff1673ffffffffffffffffffffffffffffffffffffffff1663d3ea0f89836040518263ffffffff1660e01b8152600401610c579190614dd8565b602060405180830381865afa158015610c72573d5f803e3d5ffd5b505050506040513d601f19601f82011682018060405250810190610c96919061500b565b9050919050565b5f60165f9054906101000a900473ffffffffffffffffffffffffffffffffffffffff16905090565b815f73ffffffffffffffffffffffffffffffffffffffff1660035f8373ffffffffffffffffffffffffffffffffffffffff1673ffffffffffffffffffffffffffffffffffffffff1681526020019081526020015f205f9054906101000a900473ffffffffffffffffffffffffffffffffffffffff1673ffffffffffffffffffffffffffffffffffffffff1603610d9257806040517f75f49383000000000000000000000000000000000000000000000000000000008152600401610d899190614dd8565b60405180910390fd5b815f8103610dcc576040517fdd7f4eeb00000000000000000000000000000000000000000000000000000000815260040160405180910390fd5b610dd4613d9b565b82600a5f3373ffffffffffffffffffffffffffffffffffffffff1673ffffffffffffffffffffffffffffffffffffffff1681526020019081526020015f205f8673ffffffffffffffffffffffffffffffffffffffff1673ffffffffffffffffffffffffffffffffffffffff1681526020019081526020015f20541015610e86576040517f3c7a073600000000000000000000000000000000000000000000000000000000815260040160405180910390fd5b82600a5f3373ffffffffffffffffffffffffffffffffffffffff1673ffffffffffffffffffffffffffffffffffffffff1681526020019081526020015f205f8673ffffffffffffffffffffffffffffffffffffffff1673ffffffffffffffffffffffffffffffffffffffff1681526020019081526020015f205f828254610f0d9190615063565b925050819055508260095f8673ffffffffffffffffffffffffffffffffffffffff1673ffffffffffffffffffffffffffffffffffffffff1681526020019081526020015f205f828254610f609190615063565b92505081905550610f718484613b75565b60155f828254610f819190615063565b9250508190555060175f9054906101000a900473ffffffffffffffffffffffffffffffffffffffff1673ffffffffffffffffffffffffffffffffffffffff1663cd60f59f3386866040518463ffffffff1660e01b8152600401610fe693929190615096565b5f604051808303815f87803b158015610ffd575f80fd5b505af115801561100f573d5f803e3d5ffd5b505050508373ffffffffffffffffffffffffffffffffffffffff163373ffffffffffffffffffffffffffffffffffffffff167fef9786f020a42cd318223f933c92260dece31de5cd587b0d7c230fd2a056a111856040516110709190614bd2565b60405180910390a3611080613ddf565b50505050565b5f805f90505f5b60118054905081101561117157611157601182815481106110b1576110b06150cb565b5b905f5260205f20015f9054906101000a900473ffffffffffffffffffffffffffffffffffffffff1660085f601185815481106110f0576110ef6150cb565b5b905f5260205f20015f9054906101000a900473ffffffffffffffffffffffffffffffffffffffff1673ffffffffffffffffffffffffffffffffffffffff1673ffffffffffffffffffffffffffffffffffffffff1681526020019081526020015f2054613b75565b8261116291906150f8565b9150808060010191505061108d565b508091505090565b5f600b5f3373ffffffffffffffffffffffffffffffffffffffff1673ffffffffffffffffffffffffffffffffffffffff1681526020019081526020015f205f8373ffffffffffffffffffffffffffffffffffffffff1673ffffffffffffffffffffffffffffffffffffffff1681526020019081526020015f20549050919050565b5f60085f8373ffffffffffffffffffffffffffffffffffffffff1673ffffffffffffffffffffffffffffffffffffffff1681526020019081526020015f20549050919050565b5f8060085f8473ffffffffffffffffffffffffffffffffffffffff1673ffffffffffffffffffffffffffffffffffffffff1681526020019081526020015f205490505f600d5f8573ffffffffffffffffffffffffffffffffffffffff1673ffffffffffffffffffffffffffffffffffffffff1681526020019081526020015f205490505f82036112d4575f925050506113bd565b5f82670de0b6b3a7640000836112ea919061512b565b6112f49190615199565b90505f60165f9054906101000a900473ffffffffffffffffffffffffffffffffffffffff1673ffffffffffffffffffffffffffffffffffffffff1663d3ea0f89876040518263ffffffff1660e01b81526004016113519190614dd8565b602060405180830381865afa15801561136c573d5f803e3d5ffd5b505050506040513d601f19601f82011682018060405250810190611390919061500b565b90505f670de0b6b3a764000083836113a8919061512b565b6113b29190615199565b905080955050505050505b919050565b805f81036113fc576040517fdd7f4eeb00000000000000000000000000000000000000000000000000000000815260040160405180910390fd5b825f73ffffffffffffffffffffffffffffffffffffffff1660035f8373ffffffffffffffffffffffffffffffffffffffff1673ffffffffffffffffffffffffffffffffffffffff1681526020019081526020015f205f9054906101000a900473ffffffffffffffffffffffffffffffffffffffff1673ffffffffffffffffffffffffffffffffffffffff16036114c957806040517f75f493830000000000000000000000000000000000000000000000000000000081526004016114c09190614dd8565b60405180910390fd5b6114d1613d9b565b60175f9054906101000a900473ffffffffffffffffffffffffffffffffffffffff1673ffffffffffffffffffffffffffffffffffffffff1663a745f78e3386866040518463ffffffff1660e01b815260040161152f93929190615096565b5f604051808303815f87803b158015611546575f80fd5b505af1158015611558573d5f803e3d5ffd5b505050506115668484613b75565b60145f82825461157691906150f8565b925050819055505f60085f8673ffffffffffffffffffffffffffffffffffffffff1673ffffffffffffffffffffffffffffffffffffffff1681526020019081526020015f205490505f60075f9054906101000a900473ffffffffffffffffffffffffffffffffffffffff1673ffffffffffffffffffffffffffffffffffffffff166318160ddd6040518163ffffffff1660e01b8152600401602060405180830381865afa158015611629573d5f803e3d5ffd5b505050506040513d601f19601f8201168201806040525081019061164d919061500b565b90505f8082148061165d57505f83145b6116795782828702816116735761167261516c565b5b0461167b565b855b90508560045f3373ffffffffffffffffffffffffffffffffffffffff1673ffffffffffffffffffffffffffffffffffffffff1681526020019081526020015f205f8973ffffffffffffffffffffffffffffffffffffffff1673ffffffffffffffffffffffffffffffffffffffff1681526020019081526020015f205f82825401925050819055508560085f8973ffffffffffffffffffffffffffffffffffffffff1673ffffffffffffffffffffffffffffffffffffffff1681526020019081526020015f205f82825401925050819055506117563382613de8565b8673ffffffffffffffffffffffffffffffffffffffff163373ffffffffffffffffffffffffffffffffffffffff167f44504979f82d498dad8a0687fc02e140be70b1b4ab3b9e23c6ffc1d04410194a88846040516117b59291906151c9565b60405180910390a35050506117c8613ddf565b50505050565b5f600a5f3373ffffffffffffffffffffffffffffffffffffffff1673ffffffffffffffffffffffffffffffffffffffff1681526020019081526020015f205f8373ffffffffffffffffffffffffffffffffffffffff1673ffffffffffffffffffffffffffffffffffffffff1681526020019081526020015f20549050919050565b805f8103611889576040517fdd7f4eeb00000000000000000000000000000000000000000000000000000000815260040160405180910390fd5b5f60075f9054906101000a900473ffffffffffffffffffffffffffffffffffffffff1673ffffffffffffffffffffffffffffffffffffffff166370a08231336040518263ffffffff1660e01b81526004016118e49190614dd8565b602060405180830381865afa1580156118ff573d5f803e3d5ffd5b505050506040513d601f19601f82011682018060405250810190611923919061500b565b90508281101561196a57806040517f2fd681410000000000000000000000000000000000000000000000000000000081526004016119619190614bd2565b60405180910390fd5b6119743384613f4c565b3373ffffffffffffffffffffffffffffffffffffffff167fddc27b1bc9a4157643da059066b645eee138fbfc8b090a740bdfbf826cf9b2c2846040516119ba9190614bd2565b60405180910390a2505050565b805f8103611a01576040517fdd7f4eeb00000000000000000000000000000000000000000000000000000000815260040160405180910390fd5b825f73ffffffffffffffffffffffffffffffffffffffff1660035f8373ffffffffffffffffffffffffffffffffffffffff1673ffffffffffffffffffffffffffffffffffffffff1681526020019081526020015f205f9054906101000a900473ffffffffffffffffffffffffffffffffffffffff1673ffffffffffffffffffffffffffffffffffffffff1603611ace57806040517f75f49383000000000000000000000000000000000000000000000000000000008152600401611ac59190614dd8565b60405180910390fd5b5f60055f3373ffffffffffffffffffffffffffffffffffffffff1673ffffffffffffffffffffffffffffffffffffffff1681526020019081526020015f205f8673ffffffffffffffffffffffffffffffffffffffff1673ffffffffffffffffffffffffffffffffffffffff1681526020019081526020015f20600101541115611b83576040517f825984e500000000000000000000000000000000000000000000000000000000815260040160405180910390fd5b5f600a5f3373ffffffffffffffffffffffffffffffffffffffff1673ffffffffffffffffffffffffffffffffffffffff1681526020019081526020015f205f8673ffffffffffffffffffffffffffffffffffffffff1673ffffffffffffffffffffffffffffffffffffffff1681526020019081526020015f205490505f670de0b6b3a7640000670a688906bd8b000083611c1d919061512b565b611c279190615199565b90505f611c348783613b75565b905080861115611c70576040517f0cd58b9e00000000000000000000000000000000000000000000000000000000815260040160405180910390fd5b600c5f3373ffffffffffffffffffffffffffffffffffffffff1673ffffffffffffffffffffffffffffffffffffffff1681526020019081526020015f205f8873ffffffffffffffffffffffffffffffffffffffff1673ffffffffffffffffffffffffffffffffffffffff1681526020019081526020015f205f9054906101000a900460ff16611e8557601033908060018154018082558091505060019003905f5260205f20015f9091909190916101000a81548173ffffffffffffffffffffffffffffffffffffffff021916908373ffffffffffffffffffffffffffffffffffffffff160217905550600e5f3373ffffffffffffffffffffffffffffffffffffffff1673ffffffffffffffffffffffffffffffffffffffff1681526020019081526020015f2087908060018154018082558091505060019003905f5260205f20015f9091909190916101000a81548173ffffffffffffffffffffffffffffffffffffffff021916908373ffffffffffffffffffffffffffffffffffffffff1602179055506001600c5f3373ffffffffffffffffffffffffffffffffffffffff1673ffffffffffffffffffffffffffffffffffffffff1681526020019081526020015f205f8973ffffffffffffffffffffffffffffffffffffffff1673ffffffffffffffffffffffffffffffffffffffff1681526020019081526020015f205f6101000a81548160ff0219169083151502179055505b8560125f828254611e9691906150f8565b9250508190555085600f5f8973ffffffffffffffffffffffffffffffffffffffff1673ffffffffffffffffffffffffffffffffffffffff1681526020019081526020015f205f828254611ee991906150f8565b925050819055505f611efb888861395f565b905080600d5f8a73ffffffffffffffffffffffffffffffffffffffff1673ffffffffffffffffffffffffffffffffffffffff1681526020019081526020015f205f828254611f4991906150f8565b925050819055505f60055f3373ffffffffffffffffffffffffffffffffffffffff1673ffffffffffffffffffffffffffffffffffffffff1681526020019081526020015f205f8a73ffffffffffffffffffffffffffffffffffffffff1673ffffffffffffffffffffffffffffffffffffffff1681526020019081526020015f20905087816001015f828254611fde91906150f8565b9250508190555087816002015f828254611ff891906150f8565b925050819055508781600b015f82825461201291906150f8565b9250508190555088816005015f6101000a81548173ffffffffffffffffffffffffffffffffffffffff021916908373ffffffffffffffffffffffffffffffffffffffff1602179055508181600901819055505f670a688906bd8b0000670de0b6b3a76400008a612082919061512b565b61208c9190615199565b90505f6120998b8361395f565b905080836003018190555042836004018190555062ed4e00426120bc91906150f8565b83600c01819055507f0000000000000000000000000000000000000000000000000000000000000000835f015f6101000a81548173ffffffffffffffffffffffffffffffffffffffff021916908373ffffffffffffffffffffffffffffffffffffffff16021790555060015f8c73ffffffffffffffffffffffffffffffffffffffff1673ffffffffffffffffffffffffffffffffffffffff1681526020019081526020015f205483600601819055508060095f8d73ffffffffffffffffffffffffffffffffffffffff1673ffffffffffffffffffffffffffffffffffffffff1681526020019081526020015f205f8282546121b79190615063565b9250508190555080600a5f3373ffffffffffffffffffffffffffffffffffffffff1673ffffffffffffffffffffffffffffffffffffffff1681526020019081526020015f205f8d73ffffffffffffffffffffffffffffffffffffffff1673ffffffffffffffffffffffffffffffffffffffff1681526020019081526020015f205f8282546122459190615063565b9250508190555080600b5f3373ffffffffffffffffffffffffffffffffffffffff1673ffffffffffffffffffffffffffffffffffffffff1681526020019081526020015f205f8d73ffffffffffffffffffffffffffffffffffffffff1673ffffffffffffffffffffffffffffffffffffffff1681526020019081526020015f205f8282546122d391906150f8565b925050819055506122e38b61402c565b60175f9054906101000a900473ffffffffffffffffffffffffffffffffffffffff1673ffffffffffffffffffffffffffffffffffffffff16633938702f338c6040518363ffffffff1660e01b815260040161233f9291906151f0565b5f604051808303815f87803b158015612356575f80fd5b505af1158015612368573d5f803e3d5ffd5b505050508a73ffffffffffffffffffffffffffffffffffffffff163373ffffffffffffffffffffffffffffffffffffffff167f8234a84e88365d63561d021adfdafd8dfef8cf83025a2d9fe241f47d107aa6d7858d6040516123cb92919061549e565b60405180910390a35050505050505050505050565b5f8083838101906123f19190615502565b915091505f60055f8473ffffffffffffffffffffffffffffffffffffffff1673ffffffffffffffffffffffffffffffffffffffff1681526020019081526020015f205f8373ffffffffffffffffffffffffffffffffffffffff1673ffffffffffffffffffffffffffffffffffffffff1681526020019081526020015f20905080600c015442101561248457505050612547565b600281600d015f9054906101000a900460ff1660ff1610156125385780600d015f81819054906101000a900460ff16809291906124c090615540565b91906101000a81548160ff021916908360ff1602179055505062278d00426124e891906150f8565b81600c0181905550670de0b6b3a764000066b1a2bc2ec500008260010154612510919061512b565b61251a9190615199565b816001015f82825461252c91906150f8565b92505081905550612543565b612542838361423b565b5b5050505b5050565b60125481565b60135481565b5f60075f9054906101000a900473ffffffffffffffffffffffffffffffffffffffff1673ffffffffffffffffffffffffffffffffffffffff166318160ddd6040518163ffffffff1660e01b8152600401602060405180830381865afa1580156125c2573d5f803e3d5ffd5b505050506040513d601f19601f820116820180604052508101906125e6919061500b565b6125ee611086565b6125f89190615199565b905090565b670a688906bd8b000081565b60145481565b5f60175f9054906101000a900473ffffffffffffffffffffffffffffffffffffffff16905090565b5f60045f8473ffffffffffffffffffffffffffffffffffffffff1673ffffffffffffffffffffffffffffffffffffffff1681526020019081526020015f205f8373ffffffffffffffffffffffffffffffffffffffff1673ffffffffffffffffffffffffffffffffffffffff1681526020019081526020015f2054905092915050565b5f60605f5b601080549050811015612971575f601082815481106126e0576126df6150cb565b5b905f5260205f20015f9054906101000a900473ffffffffffffffffffffffffffffffffffffffff1690505f600e5f8373ffffffffffffffffffffffffffffffffffffffff1673ffffffffffffffffffffffffffffffffffffffff1681526020019081526020015f208054806020026020016040519081016040528092919081815260200182805480156127c557602002820191905f5260205f20905b815f9054906101000a900473ffffffffffffffffffffffffffffffffffffffff1673ffffffffffffffffffffffffffffffffffffffff168152602001906001019080831161277c575b505050505090505f5b8151811015612961575f60055f8573ffffffffffffffffffffffffffffffffffffffff1673ffffffffffffffffffffffffffffffffffffffff1681526020019081526020015f205f848481518110612829576128286150cb565b5b602002602001015173ffffffffffffffffffffffffffffffffffffffff1673ffffffffffffffffffffffffffffffffffffffff1681526020019081526020015f2090505f816001015403612895575f60405180602001604052805f815250965096505050505050612987565b5f6128be8484815181106128ac576128ab6150cb565b5b60200260200101518360030154613b75565b90505f670de0b6b3a764000066b1a2bc2ec5000084600101546128e1919061512b565b6128eb9190615199565b905082600c01544211806128fe57508082105b1561295157600186868681518110612919576129186150cb565b5b6020026020010151604051602001612932929190615568565b6040516020818303038152906040529850985050505050505050612987565b50505080806001019150506127ce565b50505080806001019150506126be565b505f60405180602001604052805f815250915091505b9250929050565b5f600d5f8373ffffffffffffffffffffffffffffffffffffffff1673ffffffffffffffffffffffffffffffffffffffff1681526020019081526020015f20549050919050565b805f8103612a0e576040517fdd7f4eeb00000000000000000000000000000000000000000000000000000000815260040160405180910390fd5b825f73ffffffffffffffffffffffffffffffffffffffff1660035f8373ffffffffffffffffffffffffffffffffffffffff1673ffffffffffffffffffffffffffffffffffffffff1681526020019081526020015f205f9054906101000a900473ffffffffffffffffffffffffffffffffffffffff1673ffffffffffffffffffffffffffffffffffffffff1603612adb57806040517f75f49383000000000000000000000000000000000000000000000000000000008152600401612ad29190614dd8565b60405180910390fd5b612ae3613d9b565b5f60045f3373ffffffffffffffffffffffffffffffffffffffff1673ffffffffffffffffffffffffffffffffffffffff1681526020019081526020015f205f8673ffffffffffffffffffffffffffffffffffffffff1673ffffffffffffffffffffffffffffffffffffffff1681526020019081526020015f2054905083811015612ba65783816040517f7a9a6b47000000000000000000000000000000000000000000000000000000008152600401612b9d9291906151c9565b60405180910390fd5b8360045f3373ffffffffffffffffffffffffffffffffffffffff1673ffffffffffffffffffffffffffffffffffffffff1681526020019081526020015f205f8773ffffffffffffffffffffffffffffffffffffffff1673ffffffffffffffffffffffffffffffffffffffff1681526020019081526020015f205f828254612c2d9190615063565b925050819055508360085f8773ffffffffffffffffffffffffffffffffffffffff1673ffffffffffffffffffffffffffffffffffffffff1681526020019081526020015f205f828254612c809190615063565b92505081905550612c918585613b75565b60145f828254612ca19190615063565b9250508190555060175f9054906101000a900473ffffffffffffffffffffffffffffffffffffffff1673ffffffffffffffffffffffffffffffffffffffff1663ddf9f55a3387876040518463ffffffff1660e01b8152600401612d0693929190615096565b5f604051808303815f87803b158015612d1d575f80fd5b505af1158015612d2f573d5f803e3d5ffd5b505050508473ffffffffffffffffffffffffffffffffffffffff163373ffffffffffffffffffffffffffffffffffffffff167f2cd6435b1b961c13f55202979edd0765a809f69a539d8a477436c94c1211e43e86604051612d909190614bd2565b60405180910390a350612da1613ddf565b50505050565b5f60075f9054906101000a900473ffffffffffffffffffffffffffffffffffffffff16905090565b6002602052805f5260405f205f915090505481565b815f73ffffffffffffffffffffffffffffffffffffffff1660035f8373ffffffffffffffffffffffffffffffffffffffff1673ffffffffffffffffffffffffffffffffffffffff1681526020019081526020015f205f9054906101000a900473ffffffffffffffffffffffffffffffffffffffff1673ffffffffffffffffffffffffffffffffffffffff1603612eb157806040517f75f49383000000000000000000000000000000000000000000000000000000008152600401612ea89190614dd8565b60405180910390fd5b815f8103612eeb576040517fdd7f4eeb00000000000000000000000000000000000000000000000000000000815260040160405180910390fd5b612ef3613d9b565b5f60055f3373ffffffffffffffffffffffffffffffffffffffff1673ffffffffffffffffffffffffffffffffffffffff1681526020019081526020015f205f8673ffffffffffffffffffffffffffffffffffffffff1673ffffffffffffffffffffffffffffffffffffffff1681526020019081526020015f2090505f816001015490505f826006015490505f8111612fc0576040517f08c379a0000000000000000000000000000000000000000000000000000000008152600401612fb7906155e9565b60405180910390fd5b5f8160015f8a73ffffffffffffffffffffffffffffffffffffffff1673ffffffffffffffffffffffffffffffffffffffff1681526020019081526020015f20548461300b919061512b565b6130159190615199565b90505f670de0b6b3a7640000662386f26fc1000083613034919061512b565b61303e9190615199565b90505f848361304d9190615063565b905082891115613089576040517f1997d82400000000000000000000000000000000000000000000000000000000815260040160405180910390fd5b818910156130c3576040517f9c1e585a00000000000000000000000000000000000000000000000000000000815260040160405180910390fd5b60175f9054906101000a900473ffffffffffffffffffffffffffffffffffffffff1673ffffffffffffffffffffffffffffffffffffffff1663502ea3a0338b6040518363ffffffff1660e01b815260040161311f9291906151f0565b5f604051808303815f87803b158015613136575f80fd5b505af1158015613148573d5f803e3d5ffd5b505050505f80828b11613182578a91508a836131649190615063565b88600a01819055505f9050818561317b9190615063565b945061322c565b8291505f838c6131929190615063565b905088600a01548110156131c2578089600a015f8282546131b39190615063565b925050819055505f90506131de565b88600a0154816131d29190615063565b90505f89600a01819055505b88600b015481106131fe5788600b015491505f89600b018190555061321c565b8091508089600b015f8282546132149190615063565b925050819055505b8b866132289190615063565b9550505b5f81111561326e575f81886132419190615063565b905064e8d4a5100081101561325e575f8960010181905550613268565b8089600101819055505b50613278565b8688600101819055505b81886007015f82825461328b91906150f8565b925050819055508a60135f8282546132a391906150f8565b925050819055508060125f8282546132bb9190615063565b9250508190555080600f5f8e73ffffffffffffffffffffffffffffffffffffffff1673ffffffffffffffffffffffffffffffffffffffff1681526020019081526020015f205f82825461330e9190615063565b9250508190555061331e8c61402c565b5f88600101540361355057613333338d6147f4565b600c5f3373ffffffffffffffffffffffffffffffffffffffff1673ffffffffffffffffffffffffffffffffffffffff1681526020019081526020015f205f8d73ffffffffffffffffffffffffffffffffffffffff1673ffffffffffffffffffffffffffffffffffffffff1681526020019081526020015f205f6101000a81549060ff021916905560055f3373ffffffffffffffffffffffffffffffffffffffff1673ffffffffffffffffffffffffffffffffffffffff1681526020019081526020015f205f8d73ffffffffffffffffffffffffffffffffffffffff1673ffffffffffffffffffffffffffffffffffffffff1681526020019081526020015f205f8082015f6101000a81549073ffffffffffffffffffffffffffffffffffffffff0219169055600182015f9055600282015f9055600382015f9055600482015f9055600582015f6101000a81549073ffffffffffffffffffffffffffffffffffffffff0219169055600682015f9055600782015f9055600882015f9055600982015f9055600a82015f9055600b82015f9055600c82015f9055600d82015f6101000a81549060ff0219169055600d820160016101000a81549060ff021916905550508760090154600d5f8e73ffffffffffffffffffffffffffffffffffffffff1673ffffffffffffffffffffffffffffffffffffffff1681526020019081526020015f205f8282546135449190615063565b925050819055506135a0565b42886004018190555060015f8d73ffffffffffffffffffffffffffffffffffffffff1673ffffffffffffffffffffffffffffffffffffffff1681526020019081526020015f205488600601819055505b8b73ffffffffffffffffffffffffffffffffffffffff163373ffffffffffffffffffffffffffffffffffffffff167fa09e3a8dd1d39c7f83e4b20c341d524c72ff5d48431597dba49630368da3d9888d858560405161360193929190615607565b60405180910390a35050505050505050613619613ddf565b50505050565b60165f9054906101000a900473ffffffffffffffffffffffffffffffffffffffff1681565b805f810361367e576040517fdd7f4eeb00000000000000000000000000000000000000000000000000000000815260040160405180910390fd5b825f73ffffffffffffffffffffffffffffffffffffffff1660035f8373ffffffffffffffffffffffffffffffffffffffff1673ffffffffffffffffffffffffffffffffffffffff1681526020019081526020015f205f9054906101000a900473ffffffffffffffffffffffffffffffffffffffff1673ffffffffffffffffffffffffffffffffffffffff160361374b57806040517f75f493830000000000000000000000000000000000000000000000000000000081526004016137429190614dd8565b60405180910390fd5b613753613d9b565b60175f9054906101000a900473ffffffffffffffffffffffffffffffffffffffff1673ffffffffffffffffffffffffffffffffffffffff1663f970c3b73386866040518463ffffffff1660e01b81526004016137b193929190615096565b5f604051808303815f87803b1580156137c8575f80fd5b505af11580156137da573d5f803e3d5ffd5b505050506137e88484613b75565b60155f8282546137f891906150f8565b9250508190555082600a5f3373ffffffffffffffffffffffffffffffffffffffff1673ffffffffffffffffffffffffffffffffffffffff1681526020019081526020015f205f8673ffffffffffffffffffffffffffffffffffffffff1673ffffffffffffffffffffffffffffffffffffffff1681526020019081526020015f205f82825461388691906150f8565b925050819055508260095f8673ffffffffffffffffffffffffffffffffffffffff1673ffffffffffffffffffffffffffffffffffffffff1681526020019081526020015f205f8282546138d991906150f8565b925050819055508373ffffffffffffffffffffffffffffffffffffffff163373ffffffffffffffffffffffffffffffffffffffff167ff1c0dd7e9b98bbff859029005ef89b127af049cd18df1a8d79f0b7e019911e568560405161393d9190614bd2565b60405180910390a361394d613ddf565b50505050565b670de0b6b3a764000081565b5f8060035f8573ffffffffffffffffffffffffffffffffffffffff1673ffffffffffffffffffffffffffffffffffffffff1681526020019081526020015f205f9054906101000a900473ffffffffffffffffffffffffffffffffffffffff1690505f8173ffffffffffffffffffffffffffffffffffffffff1663feaf968c6040518163ffffffff1660e01b815260040160a060405180830381865afa158015613a0a573d5f803e3d5ffd5b505050506040513d601f19601f82011682018060405250810190613a2e91906156ae565b5050509150505f8113613a76576040517f08c379a0000000000000000000000000000000000000000000000000000000008152600401613a6d9061576f565b60405180910390fd5b6402540be40081613a87919061512b565b670de0b6b3a764000085613a9b919061512b565b613aa59190615199565b9250505092915050565b60155481565b5f60035f8373ffffffffffffffffffffffffffffffffffffffff1673ffffffffffffffffffffffffffffffffffffffff1681526020019081526020015f205f9054906101000a900473ffffffffffffffffffffffffffffffffffffffff169050919050565b5f60095f8373ffffffffffffffffffffffffffffffffffffffff1673ffffffffffffffffffffffffffffffffffffffff1681526020019081526020015f20549050919050565b6001602052805f5260405f205f915090505481565b5f8060035f8573ffffffffffffffffffffffffffffffffffffffff1673ffffffffffffffffffffffffffffffffffffffff1681526020019081526020015f205f9054906101000a900473ffffffffffffffffffffffffffffffffffffffff1690505f8173ffffffffffffffffffffffffffffffffffffffff1663feaf968c6040518163ffffffff1660e01b815260040160a060405180830381865afa158015613c20573d5f803e3d5ffd5b505050506040513d601f19601f82011682018060405250810190613c4491906156ae565b505050915050670de0b6b3a7640000846402540be40083613c65919061512b565b613c6f919061512b565b613c799190615199565b9250505092915050565b5f60015f8373ffffffffffffffffffffffffffffffffffffffff1673ffffffffffffffffffffffffffffffffffffffff1681526020019081526020015f20549050919050565b5f600d5f8373ffffffffffffffffffffffffffffffffffffffff1673ffffffffffffffffffffffffffffffffffffffff1681526020019081526020015f2054613d4f8360085f8673ffffffffffffffffffffffffffffffffffffffff1673ffffffffffffffffffffffffffffffffffffffff1681526020019081526020015f2054613b75565b613d599190615063565b9050919050565b60118181548110613d6f575f80fd5b905f5260205f20015f915054906101000a900473ffffffffffffffffffffffffffffffffffffffff1681565b60025f5403613dd6576040517f3ee5aeb500000000000000000000000000000000000000000000000000000000815260040160405180910390fd5b60025f81905550565b60015f81905550565b805f8103613e22576040517fdd7f4eeb00000000000000000000000000000000000000000000000000000000815260040160405180910390fd5b60075f9054906101000a900473ffffffffffffffffffffffffffffffffffffffff1673ffffffffffffffffffffffffffffffffffffffff166340c10f1984846040518363ffffffff1660e01b8152600401613e7e9291906151f0565b6020604051808303815f875af1158015613e9a573d5f803e3d5ffd5b505050506040513d601f19601f82011682018060405250810190613ebe91906157b7565b613ef4576040517fa1650ce000000000000000000000000000000000000000000000000000000000815260040160405180910390fd5b8160065f8573ffffffffffffffffffffffffffffffffffffffff1673ffffffffffffffffffffffffffffffffffffffff1681526020019081526020015f205f828254613f4091906150f8565b92505081905550505050565b60075f9054906101000a900473ffffffffffffffffffffffffffffffffffffffff1673ffffffffffffffffffffffffffffffffffffffff16639dc29fac83836040518363ffffffff1660e01b8152600401613fa89291906151f0565b5f604051808303815f87803b158015613fbf575f80fd5b505af1158015613fd1573d5f803e3d5ffd5b505050508060065f8473ffffffffffffffffffffffffffffffffffffffff1673ffffffffffffffffffffffffffffffffffffffff1681526020019081526020015f205f8282546140219190615063565b925050819055505050565b5f60025f8373ffffffffffffffffffffffffffffffffffffffff1673ffffffffffffffffffffffffffffffffffffffff1681526020019081526020015f2054426140769190615063565b90505f81036140855750614238565b5f60165f9054906101000a900473ffffffffffffffffffffffffffffffffffffffff1673ffffffffffffffffffffffffffffffffffffffff1663d3ea0f89846040518263ffffffff1660e01b81526004016140e09190614dd8565b602060405180830381865afa1580156140fb573d5f803e3d5ffd5b505050506040513d601f19601f8201168201806040525081019061411f919061500b565b90505f6301e13380826141329190615199565b90505f8382614141919061512b565b9050670de0b6b3a76400008160015f8873ffffffffffffffffffffffffffffffffffffffff1673ffffffffffffffffffffffffffffffffffffffff1681526020019081526020015f2054614195919061512b565b61419f9190615199565b60015f8773ffffffffffffffffffffffffffffffffffffffff1673ffffffffffffffffffffffffffffffffffffffff1681526020019081526020015f205f8282546141ea91906150f8565b925050819055504260025f8773ffffffffffffffffffffffffffffffffffffffff1673ffffffffffffffffffffffffffffffffffffffff1681526020019081526020015f2081905550505050505b50565b805f73ffffffffffffffffffffffffffffffffffffffff1660035f8373ffffffffffffffffffffffffffffffffffffffff1673ffffffffffffffffffffffffffffffffffffffff1681526020019081526020015f205f9054906101000a900473ffffffffffffffffffffffffffffffffffffffff1673ffffffffffffffffffffffffffffffffffffffff160361430857806040517f75f493830000000000000000000000000000000000000000000000000000000081526004016142ff9190614dd8565b60405180910390fd5b614310613d9b565b5f60055f8573ffffffffffffffffffffffffffffffffffffffff1673ffffffffffffffffffffffffffffffffffffffff1681526020019081526020015f205f8473ffffffffffffffffffffffffffffffffffffffff1673ffffffffffffffffffffffffffffffffffffffff1681526020019081526020015f2090505f816001015490505f81036143cc576040517f9e75e24100000000000000000000000000000000000000000000000000000000815260040160405180910390fd5b5f6143db858460030154613b75565b90505f670de0b6b3a764000066b1a2bc2ec50000846143fa919061512b565b6144049190615199565b905080821180156144285750600284600d015f9054906101000a900460ff1660ff16105b1561445f576040517f30dc983800000000000000000000000000000000000000000000000000000000815260040160405180910390fd5b8360090154600d5f8873ffffffffffffffffffffffffffffffffffffffff1673ffffffffffffffffffffffffffffffffffffffff1681526020019081526020015f205f8282546144af9190615063565b92505081905550836003015460085f8873ffffffffffffffffffffffffffffffffffffffff1673ffffffffffffffffffffffffffffffffffffffff1681526020019081526020015f205f82825461450691906150f8565b92505081905550601254831115614523575f60128190555061453c565b8260125f8282546145349190615063565b925050819055505b600c5f8873ffffffffffffffffffffffffffffffffffffffff1673ffffffffffffffffffffffffffffffffffffffff1681526020019081526020015f205f8773ffffffffffffffffffffffffffffffffffffffff1673ffffffffffffffffffffffffffffffffffffffff1681526020019081526020015f205f6101000a81549060ff021916905560055f8873ffffffffffffffffffffffffffffffffffffffff1673ffffffffffffffffffffffffffffffffffffffff1681526020019081526020015f205f8773ffffffffffffffffffffffffffffffffffffffff1673ffffffffffffffffffffffffffffffffffffffff1681526020019081526020015f205f8082015f6101000a81549073ffffffffffffffffffffffffffffffffffffffff0219169055600182015f9055600282015f9055600382015f9055600482015f9055600582015f6101000a81549073ffffffffffffffffffffffffffffffffffffffff0219169055600682015f9055600782015f9055600882015f9055600982015f9055600a82015f9055600b82015f9055600c82015f9055600d82015f6101000a81549060ff0219169055600d820160016101000a81549060ff021916905550505f600b5f8973ffffffffffffffffffffffffffffffffffffffff1673ffffffffffffffffffffffffffffffffffffffff1681526020019081526020015f205f8873ffffffffffffffffffffffffffffffffffffffff1673ffffffffffffffffffffffffffffffffffffffff1681526020019081526020015f20819055508573ffffffffffffffffffffffffffffffffffffffff168773ffffffffffffffffffffffffffffffffffffffff167fc140221f88f5c920f7e5b1232c4ab087c5cef4c5c800a780b652506cdbf0a7378585856040516147db93929190615607565b60405180910390a3505050506147ef613ddf565b505050565b5f60055f8473ffffffffffffffffffffffffffffffffffffffff1673ffffffffffffffffffffffffffffffffffffffff1681526020019081526020015f205f8373ffffffffffffffffffffffffffffffffffffffff1673ffffffffffffffffffffffffffffffffffffffff1681526020019081526020015f2090505f8160010154146148ac576040517f26afeade00000000000000000000000000000000000000000000000000000000815260040160405180910390fd5b806003015460095f8473ffffffffffffffffffffffffffffffffffffffff1673ffffffffffffffffffffffffffffffffffffffff1681526020019081526020015f205f8282546148fc91906150f8565b925050819055508060030154600b5f8573ffffffffffffffffffffffffffffffffffffffff1673ffffffffffffffffffffffffffffffffffffffff1681526020019081526020015f205f8473ffffffffffffffffffffffffffffffffffffffff1673ffffffffffffffffffffffffffffffffffffffff1681526020019081526020015f205f82825461498e9190615063565b925050819055508060030154600a5f8573ffffffffffffffffffffffffffffffffffffffff1673ffffffffffffffffffffffffffffffffffffffff1681526020019081526020015f205f8473ffffffffffffffffffffffffffffffffffffffff1673ffffffffffffffffffffffffffffffffffffffff1681526020019081526020015f205f828254614a2091906150f8565b925050819055508173ffffffffffffffffffffffffffffffffffffffff163373ffffffffffffffffffffffffffffffffffffffff167f61934a17c11b5044643161fe4f0b02bec50109892c048066a3b19507bdc59bb98360030154604051614a889190614bd2565b60405180910390a3505050565b604051806101e001604052805f73ffffffffffffffffffffffffffffffffffffffff1681526020015f81526020015f81526020015f81526020015f81526020015f73ffffffffffffffffffffffffffffffffffffffff1681526020015f81526020015f81526020015f81526020015f81526020015f81526020015f81526020015f81526020015f60ff1681526020015f151581525090565b5f80fd5b5f80fd5b5f73ffffffffffffffffffffffffffffffffffffffff82169050919050565b5f614b5e82614b35565b9050919050565b614b6e81614b54565b8114614b78575f80fd5b50565b5f81359050614b8981614b65565b92915050565b5f60208284031215614ba457614ba3614b2d565b5b5f614bb184828501614b7b565b91505092915050565b5f819050919050565b614bcc81614bba565b82525050565b5f602082019050614be55f830184614bc3565b92915050565b5f8060408385031215614c0157614c00614b2d565b5b5f614c0e85828601614b7b565b9250506020614c1f85828601614b7b565b9150509250929050565b614c3281614b54565b82525050565b614c4181614bba565b82525050565b5f60ff82169050919050565b614c5c81614c47565b82525050565b5f8115159050919050565b614c7681614c62565b82525050565b6101e082015f820151614c915f850182614c29565b506020820151614ca46020850182614c38565b506040820151614cb76040850182614c38565b506060820151614cca6060850182614c38565b506080820151614cdd6080850182614c38565b5060a0820151614cf060a0850182614c29565b5060c0820151614d0360c0850182614c38565b5060e0820151614d1660e0850182614c38565b50610100820151614d2b610100850182614c38565b50610120820151614d40610120850182614c38565b50610140820151614d55610140850182614c38565b50610160820151614d6a610160850182614c38565b50610180820151614d7f610180850182614c38565b506101a0820151614d946101a0850182614c53565b506101c0820151614da96101c0850182614c6d565b50505050565b5f6101e082019050614dc35f830184614c7c565b92915050565b614dd281614b54565b82525050565b5f602082019050614deb5f830184614dc9565b92915050565b614dfa81614bba565b8114614e04575f80fd5b50565b5f81359050614e1581614df1565b92915050565b5f8060408385031215614e3157614e30614b2d565b5b5f614e3e85828601614b7b565b9250506020614e4f85828601614e07565b9150509250929050565b5f60208284031215614e6e57614e6d614b2d565b5b5f614e7b84828501614e07565b91505092915050565b5f80fd5b5f80fd5b5f80fd5b5f8083601f840112614ea557614ea4614e84565b5b8235905067ffffffffffffffff811115614ec257614ec1614e88565b5b602083019150836001820283011115614ede57614edd614e8c565b5b9250929050565b5f8060208385031215614efb57614efa614b2d565b5b5f83013567ffffffffffffffff811115614f1857614f17614b31565b5b614f2485828601614e90565b92509250509250929050565b614f3981614c62565b82525050565b5f81519050919050565b5f82825260208201905092915050565b5f5b83811015614f76578082015181840152602081019050614f5b565b5f8484015250505050565b5f601f19601f8301169050919050565b5f614f9b82614f3f565b614fa58185614f49565b9350614fb5818560208601614f59565b614fbe81614f81565b840191505092915050565b5f604082019050614fdc5f830185614f30565b8181036020830152614fee8184614f91565b90509392505050565b5f8151905061500581614df1565b92915050565b5f602082840312156150205761501f614b2d565b5b5f61502d84828501614ff7565b91505092915050565b7f4e487b71000000000000000000000000000000000000000000000000000000005f52601160045260245ffd5b5f61506d82614bba565b915061507883614bba565b92508282039050818111156150905761508f615036565b5b92915050565b5f6060820190506150a95f830186614dc9565b6150b66020830185614dc9565b6150c36040830184614bc3565b949350505050565b7f4e487b71000000000000000000000000000000000000000000000000000000005f52603260045260245ffd5b5f61510282614bba565b915061510d83614bba565b925082820190508082111561512557615124615036565b5b92915050565b5f61513582614bba565b915061514083614bba565b925082820261514e81614bba565b9150828204841483151761516557615164615036565b5b5092915050565b7f4e487b71000000000000000000000000000000000000000000000000000000005f52601260045260245ffd5b5f6151a382614bba565b91506151ae83614bba565b9250826151be576151bd61516c565b5b828204905092915050565b5f6040820190506151dc5f830185614bc3565b6151e96020830184614bc3565b9392505050565b5f6040820190506152035f830185614dc9565b6152106020830184614bc3565b9392505050565b5f815f1c9050919050565b5f73ffffffffffffffffffffffffffffffffffffffff82169050919050565b5f61525361524e83615217565b615222565b9050919050565b5f819050919050565b5f61527561527083615217565b61525a565b9050919050565b5f60ff82169050919050565b5f61529a61529583615217565b61527c565b9050919050565b5f8160081c9050919050565b5f60ff82169050919050565b5f6152cb6152c6836152a1565b6152ad565b9050919050565b6101e082015f8083015490506152e781615241565b6152f35f860182614c29565b506001830154905061530481615263565b6153116020860182614c38565b506002830154905061532281615263565b61532f6040860182614c38565b506003830154905061534081615263565b61534d6060860182614c38565b506004830154905061535e81615263565b61536b6080860182614c38565b506005830154905061537c81615241565b61538960a0860182614c29565b506006830154905061539a81615263565b6153a760c0860182614c38565b50600783015490506153b881615263565b6153c560e0860182614c38565b50600883015490506153d681615263565b6153e4610100860182614c38565b50600983015490506153f581615263565b615403610120860182614c38565b50600a830154905061541481615263565b615422610140860182614c38565b50600b830154905061543381615263565b615441610160860182614c38565b50600c830154905061545281615263565b615460610180860182614c38565b50600d830154905061547181615288565b61547f6101a0860182614c53565b50615489816152b9565b6154976101c0860182614c6d565b5050505050565b5f610200820190506154b25f8301856152d2565b6154c06101e0830184614bc3565b9392505050565b5f6154d182614b35565b9050919050565b6154e1816154c7565b81146154eb575f80fd5b50565b5f813590506154fc816154d8565b92915050565b5f806040838503121561551857615517614b2d565b5b5f615525858286016154ee565b9250506020615536858286016154ee565b9150509250929050565b5f61554a82614c47565b915060ff820361555d5761555c615036565b5b600182019050919050565b5f60408201905061557b5f830185614dc9565b6155886020830184614dc9565b9392505050565b5f82825260208201905092915050565b7f496e76616c696420626f72726f7720696e6465780000000000000000000000005f82015250565b5f6155d360148361558f565b91506155de8261559f565b602082019050919050565b5f6020820190508181035f830152615600816155c7565b9050919050565b5f60608201905061561a5f830186614bc3565b6156276020830185614bc3565b6156346040830184614bc3565b949350505050565b5f69ffffffffffffffffffff82169050919050565b61565a8161563c565b8114615664575f80fd5b50565b5f8151905061567581615651565b92915050565b5f819050919050565b61568d8161567b565b8114615697575f80fd5b50565b5f815190506156a881615684565b92915050565b5f805f805f60a086880312156156c7576156c6614b2d565b5b5f6156d488828901615667565b95505060206156e58882890161569a565b94505060406156f688828901614ff7565b935050606061570788828901614ff7565b925050608061571888828901615667565b9150509295509295909350565b7f496e76616c6964207072696365206665656420646174610000000000000000005f82015250565b5f61575960178361558f565b915061576482615725565b602082019050919050565b5f6020820190508181035f8301526157868161574d565b9050919050565b61579681614c62565b81146157a0575f80fd5b50565b5f815190506157b18161578d565b92915050565b5f602082840312156157cc576157cb614b2d565b5b5f6157d9848285016157a3565b9150509291505056fea2646970667358221220ca23444405f8dc5757dc1479b9ea1b71ec1d394aaefbdeb7d249594980f848ed64736f6c63430008180033608060405234801562000010575f80fd5b506040516200151538038062001515833981810160405281019062000036919062000273565b8160015f819055505f73ffffffffffffffffffffffffffffffffffffffff168173ffffffffffffffffffffffffffffffffffffffff1603620000b1575f6040517f1e4fbdf7000000000000000000000000000000000000000000000000000000008152600401620000a89190620002c9565b60405180910390fd5b620000c2816200014b60201b60201c565b508160025f6101000a81548173ffffffffffffffffffffffffffffffffffffffff021916908373ffffffffffffffffffffffffffffffffffffffff1602179055508060035f6101000a81548173ffffffffffffffffffffffffffffffffffffffff021916908373ffffffffffffffffffffffffffffffffffffffff1602179055505050620002e4565b5f60015f9054906101000a900473ffffffffffffffffffffffffffffffffffffffff1690508160015f6101000a81548173ffffffffffffffffffffffffffffffffffffffff021916908373ffffffffffffffffffffffffffffffffffffffff1602179055508173ffffffffffffffffffffffffffffffffffffffff168173ffffffffffffffffffffffffffffffffffffffff167f8be0079c531659141344cd1fd0a4f28419497f9722a3daafe3b4186f6b6457e060405160405180910390a35050565b5f80fd5b5f73ffffffffffffffffffffffffffffffffffffffff82169050919050565b5f6200023d8262000212565b9050919050565b6200024f8162000231565b81146200025a575f80fd5b50565b5f815190506200026d8162000244565b92915050565b5f80604083850312156200028c576200028b6200020e565b5b5f6200029b858286016200025d565b9250506020620002ae858286016200025d565b9150509250929050565b620002c38162000231565b82525050565b5f602082019050620002de5f830184620002b8565b92915050565b61122380620002f25f395ff3fe608060405260043610610085575f3560e01c8063a745f78e11610058578063a745f78e14610119578063cd60f59f14610135578063ddf9f55a1461015d578063f2fde38b14610185578063f970c3b7146101ad57610085565b80633938702f14610089578063502ea3a0146100b1578063715018a6146100d95780638da5cb5b146100ef575b5f80fd5b348015610094575f80fd5b506100af60048036038101906100aa9190610f1d565b6101c9565b005b3480156100bc575f80fd5b506100d760048036038101906100d29190610f1d565b6103d3565b005b3480156100e4575f80fd5b506100ed610559565b005b3480156100fa575f80fd5b5061010361056c565b6040516101109190610f6a565b60405180910390f35b610133600480360381019061012e9190610f83565b610594565b005b348015610140575f80fd5b5061015b60048036038101906101569190610f83565b6106a9565b005b348015610168575f80fd5b50610183600480360381019061017e9190610f83565b6107bc565b005b348015610190575f80fd5b506101ab60048036038101906101a69190610fd3565b6108cf565b005b6101c760048036038101906101c29190610f83565b610953565b005b6101d1610a68565b60025f9054906101000a900473ffffffffffffffffffffffffffffffffffffffff1673ffffffffffffffffffffffffffffffffffffffff163373ffffffffffffffffffffffffffffffffffffffff1614610257576040517f81f2d1d700000000000000000000000000000000000000000000000000000000815260040160405180910390fd5b60011515600360149054906101000a900460ff161515036102a4576040517f70a39ca700000000000000000000000000000000000000000000000000000000815260040160405180910390fd5b61037b6040518060400160405280601281526020017f616d6f756e7420737461626c6520636f696e000000000000000000000000000081525060035f9054906101000a900473ffffffffffffffffffffffffffffffffffffffff1673ffffffffffffffffffffffffffffffffffffffff166370a08231306040518263ffffffff1660e01b81526004016103379190610f6a565b602060405180830381865afa158015610352573d5f803e3d5ffd5b505050506040513d601f19601f820116820180604052508101906103769190611012565b610aac565b6103c7828260035f9054906101000a900473ffffffffffffffffffffffffffffffffffffffff1673ffffffffffffffffffffffffffffffffffffffff16610b489092919063ffffffff16565b6103cf610bc7565b5050565b6103db610a68565b60025f9054906101000a900473ffffffffffffffffffffffffffffffffffffffff1673ffffffffffffffffffffffffffffffffffffffff163373ffffffffffffffffffffffffffffffffffffffff1614610461576040517f81f2d1d700000000000000000000000000000000000000000000000000000000815260040160405180910390fd5b60011515600360149054906101000a900460ff161515036104ae576040517f70a39ca700000000000000000000000000000000000000000000000000000000815260040160405180910390fd5b60035f9054906101000a900473ffffffffffffffffffffffffffffffffffffffff1673ffffffffffffffffffffffffffffffffffffffff166323b872dd8330846040518463ffffffff1660e01b815260040161050c9392919061104c565b6020604051808303815f875af1158015610528573d5f803e3d5ffd5b505050506040513d601f19601f8201168201806040525081019061054c91906110b6565b50610555610bc7565b5050565b610561610bd0565b61056a5f610c57565b565b5f60015f9054906101000a900473ffffffffffffffffffffffffffffffffffffffff16905090565b61059c610a68565b60025f9054906101000a900473ffffffffffffffffffffffffffffffffffffffff1673ffffffffffffffffffffffffffffffffffffffff163373ffffffffffffffffffffffffffffffffffffffff1614610622576040517f81f2d1d700000000000000000000000000000000000000000000000000000000815260040160405180910390fd5b60011515600360149054906101000a900460ff1615150361066f576040517f70a39ca700000000000000000000000000000000000000000000000000000000815260040160405180910390fd5b61069c8330838573ffffffffffffffffffffffffffffffffffffffff16610d1a909392919063ffffffff16565b6106a4610bc7565b505050565b6106b1610a68565b60025f9054906101000a900473ffffffffffffffffffffffffffffffffffffffff1673ffffffffffffffffffffffffffffffffffffffff163373ffffffffffffffffffffffffffffffffffffffff1614610737576040517f81f2d1d700000000000000000000000000000000000000000000000000000000815260040160405180910390fd5b60011515600360149054906101000a900460ff16151503610784576040517f70a39ca700000000000000000000000000000000000000000000000000000000815260040160405180910390fd5b6107af83828473ffffffffffffffffffffffffffffffffffffffff16610b489092919063ffffffff16565b6107b7610bc7565b505050565b6107c4610a68565b60025f9054906101000a900473ffffffffffffffffffffffffffffffffffffffff1673ffffffffffffffffffffffffffffffffffffffff163373ffffffffffffffffffffffffffffffffffffffff161461084a576040517f81f2d1d700000000000000000000000000000000000000000000000000000000815260040160405180910390fd5b60011515600360149054906101000a900460ff16151503610897576040517f70a39ca700000000000000000000000000000000000000000000000000000000815260040160405180910390fd5b6108c283828473ffffffffffffffffffffffffffffffffffffffff16610b489092919063ffffffff16565b6108ca610bc7565b505050565b6108d7610bd0565b5f73ffffffffffffffffffffffffffffffffffffffff168173ffffffffffffffffffffffffffffffffffffffff1603610947575f6040517f1e4fbdf700000000000000000000000000000000000000000000000000000000815260040161093e9190610f6a565b60405180910390fd5b61095081610c57565b50565b61095b610a68565b60025f9054906101000a900473ffffffffffffffffffffffffffffffffffffffff1673ffffffffffffffffffffffffffffffffffffffff163373ffffffffffffffffffffffffffffffffffffffff16146109e1576040517f81f2d1d700000000000000000000000000000000000000000000000000000000815260040160405180910390fd5b60011515600360149054906101000a900460ff16151503610a2e576040517f70a39ca700000000000000000000000000000000000000000000000000000000815260040160405180910390fd5b610a5b8330838573ffffffffffffffffffffffffffffffffffffffff16610d1a909392919063ffffffff16565b610a63610bc7565b505050565b60025f5403610aa3576040517f3ee5aeb500000000000000000000000000000000000000000000000000000000815260040160405180910390fd5b60025f81905550565b610b448282604051602401610ac292919061116b565b6040516020818303038152906040527fb60e72cc000000000000000000000000000000000000000000000000000000007bffffffffffffffffffffffffffffffffffffffffffffffffffffffff19166020820180517bffffffffffffffffffffffffffffffffffffffffffffffffffffffff8381831617835250505050610d9c565b5050565b610bc2838473ffffffffffffffffffffffffffffffffffffffff1663a9059cbb8585604051602401610b7b929190611199565b604051602081830303815290604052915060e01b6020820180517bffffffffffffffffffffffffffffffffffffffffffffffffffffffff8381831617835250505050610db6565b505050565b60015f81905550565b610bd8610e51565b73ffffffffffffffffffffffffffffffffffffffff16610bf661056c565b73ffffffffffffffffffffffffffffffffffffffff1614610c5557610c19610e51565b6040517f118cdaa7000000000000000000000000000000000000000000000000000000008152600401610c4c9190610f6a565b60405180910390fd5b565b5f60015f9054906101000a900473ffffffffffffffffffffffffffffffffffffffff1690508160015f6101000a81548173ffffffffffffffffffffffffffffffffffffffff021916908373ffffffffffffffffffffffffffffffffffffffff1602179055508173ffffffffffffffffffffffffffffffffffffffff168173ffffffffffffffffffffffffffffffffffffffff167f8be0079c531659141344cd1fd0a4f28419497f9722a3daafe3b4186f6b6457e060405160405180910390a35050565b610d96848573ffffffffffffffffffffffffffffffffffffffff166323b872dd868686604051602401610d4f9392919061104c565b604051602081830303815290604052915060e01b6020820180517bffffffffffffffffffffffffffffffffffffffffffffffffffffffff8381831617835250505050610db6565b50505050565b610db381610dab610e58610e77565b63ffffffff16565b50565b5f8060205f8451602086015f885af180610dd5576040513d5f823e3d81fd5b3d92505f519150505f8214610dee576001811415610e09565b5f8473ffffffffffffffffffffffffffffffffffffffff163b145b15610e4b57836040517f5274afe7000000000000000000000000000000000000000000000000000000008152600401610e429190610f6a565b60405180910390fd5b50505050565b5f33905090565b5f6a636f6e736f6c652e6c6f6790505f80835160208501845afa505050565b610e82819050919050565b610e8a6111c0565b565b5f80fd5b5f73ffffffffffffffffffffffffffffffffffffffff82169050919050565b5f610eb982610e90565b9050919050565b610ec981610eaf565b8114610ed3575f80fd5b50565b5f81359050610ee481610ec0565b92915050565b5f819050919050565b610efc81610eea565b8114610f06575f80fd5b50565b5f81359050610f1781610ef3565b92915050565b5f8060408385031215610f3357610f32610e8c565b5b5f610f4085828601610ed6565b9250506020610f5185828601610f09565b9150509250929050565b610f6481610eaf565b82525050565b5f602082019050610f7d5f830184610f5b565b92915050565b5f805f60608486031215610f9a57610f99610e8c565b5b5f610fa786828701610ed6565b9350506020610fb886828701610ed6565b9250506040610fc986828701610f09565b9150509250925092565b5f60208284031215610fe857610fe7610e8c565b5b5f610ff584828501610ed6565b91505092915050565b5f8151905061100c81610ef3565b92915050565b5f6020828403121561102757611026610e8c565b5b5f61103484828501610ffe565b91505092915050565b61104681610eea565b82525050565b5f60608201905061105f5f830186610f5b565b61106c6020830185610f5b565b611079604083018461103d565b949350505050565b5f8115159050919050565b61109581611081565b811461109f575f80fd5b50565b5f815190506110b08161108c565b92915050565b5f602082840312156110cb576110ca610e8c565b5b5f6110d8848285016110a2565b91505092915050565b5f81519050919050565b5f82825260208201905092915050565b5f5b838110156111185780820151818401526020810190506110fd565b5f8484015250505050565b5f601f19601f8301169050919050565b5f61113d826110e1565b61114781856110eb565b93506111578185602086016110fb565b61116081611123565b840191505092915050565b5f6040820190508181035f8301526111838185611133565b9050611192602083018461103d565b9392505050565b5f6040820190506111ac5f830185610f5b565b6111b9602083018461103d565b9392505050565b7f4e487b71000000000000000000000000000000000000000000000000000000005f52605160045260245ffdfea2646970667358221220d2f1a04dc44f9e5efae4b6b5547653318bff7b7556a9940d0e5884df9d66904d64736f6c63430008180033",
        "linkReferences": {}
    },
    "methodIdentifiers": {
        "LTV()": "62965d8e",
        "PRECISION()": "aaf5eb68",
        "borrowLoan(address,uint256)": "456db947",
        "burn(uint256)": "42966c68",
        "checkUpkeep(bytes)": "6e04ff0d",
        "depositCollateral(address,uint256)": "a5d5db0c",
        "depositLiquidity(address,uint256)": "39b41b4a",
        "getBorrowAPY(address)": "2d27b824",
        "getBorrowerIndex(address)": "dc12ac0d",
        "getCollateralDetailsOfUser(address)": "419e3173",
        "getCollateralPerToken(address)": "be8d2d23",
        "getInterestRateModelAddress()": "2fb89342",
        "getLoanDetails(address,address)": "2301977c",
        "getLockedCollateralDetails(address)": "35cf5231",
        "getLpTokenAddress()": "8c237c69",
        "getPriceFeedAddress(address)": "b21eb1e6",
        "getSupplyAPY(address)": "3842ea42",
        "getTokenAmountFromUsd(address,uint256)": "afea2e48",
        "getTotalBorrowedForAToken(address)": "763704ab",
        "getTotalLiquidity()": "35c7e925",
        "getTotalLiquidityPerToken(address)": "15b68d7e",
        "getTotalLiquidityPerTokenV2(address)": "ea719a33",
        "getTotalSupplyPerToken(address)": "3824c2b6",
        "getUsdValue(address,uint256)": "c660d112",
        "getUserBalance(address,address)": "6805d6ad",
        "getValueOfLpToken()": "5e6e6da2",
        "getVaultAddress()": "65cacaa4",
        "interestRateModelAddress()": "a429fea2",
        "performUpkeep(bytes)": "4585e33b",
        "repayLoan(address,uint256)": "93a595f5",
        "s_borrowerIndex(address)": "c5e82ffd",
        "s_lastAccuralTime(address)": "92ed0cef",
        "s_tokenAddressesList(uint256)": "ffc4c909",
        "totalAmountRepaid()": "527f6599",
        "totalBorrowed()": "4c19386c",
        "totalCollateralProvided()": "b1933475",
        "totalSupplied()": "630fd0ac",
        "withdrawCollateral(address,uint256)": "350c35e9",
        "withdrawDeposit(address,uint256)": "7f07bfdc"
    },
    "id": 43
}